{
  "contractName": "BigRichManGame",
  "abi": [
    {
      "inputs": [],
      "stateMutability": "nonpayable",
      "type": "constructor"
    },
    {
      "anonymous": false,
      "inputs": [
        {
          "indexed": true,
          "internalType": "address",
          "name": "account",
          "type": "address"
        },
        {
          "indexed": true,
          "internalType": "address",
          "name": "operator",
          "type": "address"
        },
        {
          "indexed": false,
          "internalType": "bool",
          "name": "approved",
          "type": "bool"
        }
      ],
      "name": "ApprovalForAll",
      "type": "event"
    },
    {
      "anonymous": false,
      "inputs": [
        {
          "indexed": true,
          "internalType": "address",
          "name": "previousOwner",
          "type": "address"
        },
        {
          "indexed": true,
          "internalType": "address",
          "name": "newOwner",
          "type": "address"
        }
      ],
      "name": "OwnershipTransferred",
      "type": "event"
    },
    {
      "anonymous": false,
      "inputs": [
        {
          "indexed": true,
          "internalType": "address",
          "name": "operator",
          "type": "address"
        },
        {
          "indexed": true,
          "internalType": "address",
          "name": "from",
          "type": "address"
        },
        {
          "indexed": true,
          "internalType": "address",
          "name": "to",
          "type": "address"
        },
        {
          "indexed": false,
          "internalType": "uint256[]",
          "name": "ids",
          "type": "uint256[]"
        },
        {
          "indexed": false,
          "internalType": "uint256[]",
          "name": "values",
          "type": "uint256[]"
        }
      ],
      "name": "TransferBatch",
      "type": "event"
    },
    {
      "anonymous": false,
      "inputs": [
        {
          "indexed": true,
          "internalType": "address",
          "name": "operator",
          "type": "address"
        },
        {
          "indexed": true,
          "internalType": "address",
          "name": "from",
          "type": "address"
        },
        {
          "indexed": true,
          "internalType": "address",
          "name": "to",
          "type": "address"
        },
        {
          "indexed": false,
          "internalType": "uint256",
          "name": "id",
          "type": "uint256"
        },
        {
          "indexed": false,
          "internalType": "uint256",
          "name": "value",
          "type": "uint256"
        }
      ],
      "name": "TransferSingle",
      "type": "event"
    },
    {
      "anonymous": false,
      "inputs": [
        {
          "indexed": false,
          "internalType": "string",
          "name": "value",
          "type": "string"
        },
        {
          "indexed": true,
          "internalType": "uint256",
          "name": "id",
          "type": "uint256"
        }
      ],
      "name": "URI",
      "type": "event"
    },
    {
      "inputs": [],
      "name": "HOUSE",
      "outputs": [
        {
          "internalType": "uint256",
          "name": "",
          "type": "uint256"
        }
      ],
      "stateMutability": "view",
      "type": "function",
      "constant": true
    },
    {
      "inputs": [],
      "name": "LAND",
      "outputs": [
        {
          "internalType": "uint256",
          "name": "",
          "type": "uint256"
        }
      ],
      "stateMutability": "view",
      "type": "function",
      "constant": true
    },
    {
      "inputs": [],
      "name": "TOKEN_GOLD",
      "outputs": [
        {
          "internalType": "uint256",
          "name": "",
          "type": "uint256"
        }
      ],
      "stateMutability": "view",
      "type": "function",
      "constant": true
    },
    {
      "inputs": [],
      "name": "TOKEN_SILVER",
      "outputs": [
        {
          "internalType": "uint256",
          "name": "",
          "type": "uint256"
        }
      ],
      "stateMutability": "view",
      "type": "function",
      "constant": true
    },
    {
      "inputs": [
        {
          "internalType": "address",
          "name": "account",
          "type": "address"
        },
        {
          "internalType": "uint256",
          "name": "id",
          "type": "uint256"
        }
      ],
      "name": "balanceOf",
      "outputs": [
        {
          "internalType": "uint256",
          "name": "",
          "type": "uint256"
        }
      ],
      "stateMutability": "view",
      "type": "function",
      "constant": true
    },
    {
      "inputs": [
        {
          "internalType": "address[]",
          "name": "accounts",
          "type": "address[]"
        },
        {
          "internalType": "uint256[]",
          "name": "ids",
          "type": "uint256[]"
        }
      ],
      "name": "balanceOfBatch",
      "outputs": [
        {
          "internalType": "uint256[]",
          "name": "",
          "type": "uint256[]"
        }
      ],
      "stateMutability": "view",
      "type": "function",
      "constant": true
    },
    {
      "inputs": [
        {
          "internalType": "address",
          "name": "account",
          "type": "address"
        },
        {
          "internalType": "address",
          "name": "operator",
          "type": "address"
        }
      ],
      "name": "isApprovedForAll",
      "outputs": [
        {
          "internalType": "bool",
          "name": "",
          "type": "bool"
        }
      ],
      "stateMutability": "view",
      "type": "function",
      "constant": true
    },
    {
      "inputs": [],
      "name": "owner",
      "outputs": [
        {
          "internalType": "address",
          "name": "",
          "type": "address"
        }
      ],
      "stateMutability": "view",
      "type": "function",
      "constant": true
    },
    {
      "inputs": [],
      "name": "renounceOwnership",
      "outputs": [],
      "stateMutability": "nonpayable",
      "type": "function"
    },
    {
      "inputs": [
        {
          "internalType": "address",
          "name": "from",
          "type": "address"
        },
        {
          "internalType": "address",
          "name": "to",
          "type": "address"
        },
        {
          "internalType": "uint256[]",
          "name": "ids",
          "type": "uint256[]"
        },
        {
          "internalType": "uint256[]",
          "name": "amounts",
          "type": "uint256[]"
        },
        {
          "internalType": "bytes",
          "name": "data",
          "type": "bytes"
        }
      ],
      "name": "safeBatchTransferFrom",
      "outputs": [],
      "stateMutability": "nonpayable",
      "type": "function"
    },
    {
      "inputs": [
        {
          "internalType": "address",
          "name": "from",
          "type": "address"
        },
        {
          "internalType": "address",
          "name": "to",
          "type": "address"
        },
        {
          "internalType": "uint256",
          "name": "id",
          "type": "uint256"
        },
        {
          "internalType": "uint256",
          "name": "amount",
          "type": "uint256"
        },
        {
          "internalType": "bytes",
          "name": "data",
          "type": "bytes"
        }
      ],
      "name": "safeTransferFrom",
      "outputs": [],
      "stateMutability": "nonpayable",
      "type": "function"
    },
    {
      "inputs": [
        {
          "internalType": "address",
          "name": "operator",
          "type": "address"
        },
        {
          "internalType": "bool",
          "name": "approved",
          "type": "bool"
        }
      ],
      "name": "setApprovalForAll",
      "outputs": [],
      "stateMutability": "nonpayable",
      "type": "function"
    },
    {
      "inputs": [
        {
          "internalType": "bytes4",
          "name": "interfaceId",
          "type": "bytes4"
        }
      ],
      "name": "supportsInterface",
      "outputs": [
        {
          "internalType": "bool",
          "name": "",
          "type": "bool"
        }
      ],
      "stateMutability": "view",
      "type": "function",
      "constant": true
    },
    {
      "inputs": [
        {
          "internalType": "address",
          "name": "newOwner",
          "type": "address"
        }
      ],
      "name": "transferOwnership",
      "outputs": [],
      "stateMutability": "nonpayable",
      "type": "function"
    },
    {
      "inputs": [
        {
          "internalType": "uint256",
          "name": "",
          "type": "uint256"
        }
      ],
      "name": "uri",
      "outputs": [
        {
          "internalType": "string",
          "name": "",
          "type": "string"
        }
      ],
      "stateMutability": "view",
      "type": "function",
      "constant": true
    },
    {
      "inputs": [
        {
          "internalType": "address",
          "name": "account",
          "type": "address"
        },
        {
          "internalType": "uint256",
          "name": "id",
          "type": "uint256"
        },
        {
          "internalType": "uint256",
          "name": "amount",
          "type": "uint256"
        }
      ],
      "name": "mint",
      "outputs": [],
      "stateMutability": "nonpayable",
      "type": "function"
    },
    {
      "inputs": [
        {
          "internalType": "address",
          "name": "account",
          "type": "address"
        },
        {
          "internalType": "uint256",
          "name": "amount",
          "type": "uint256"
        },
        {
          "internalType": "bool",
          "name": "isGold",
          "type": "bool"
        }
      ],
      "name": "mintCurrency",
      "outputs": [],
      "stateMutability": "nonpayable",
      "type": "function"
    },
    {
      "inputs": [
        {
          "internalType": "address",
          "name": "to",
          "type": "address"
        },
        {
          "internalType": "uint256",
          "name": "id",
          "type": "uint256"
        },
        {
          "internalType": "uint256",
          "name": "amount",
          "type": "uint256"
        }
      ],
      "name": "transferToken",
      "outputs": [],
      "stateMutability": "nonpayable",
      "type": "function"
    },
    {
      "inputs": [
        {
          "internalType": "address",
          "name": "account",
          "type": "address"
        },
        {
          "internalType": "string",
          "name": "metadataUrl",
          "type": "string"
        }
      ],
      "name": "mintHouse",
      "outputs": [],
      "stateMutability": "nonpayable",
      "type": "function"
    },
    {
      "inputs": [
        {
          "internalType": "uint256",
          "name": "houseId",
          "type": "uint256"
        }
      ],
      "name": "getHouseMetadata",
      "outputs": [
        {
          "internalType": "string",
          "name": "",
          "type": "string"
        }
      ],
      "stateMutability": "view",
      "type": "function",
      "constant": true
    }
  ],
  "bytecode": "0x608060405260646004553480156200001657600080fd5b506040518060600160405280602b815260200162003f5c602b91396200004281620000b560201b60201c565b506200006362000057620000d160201b60201c565b620000d960201b60201c565b62000089336000612710604051806020016040528060008152506200019f60201b60201c565b620000af336001612710604051806020016040528060008152506200019f60201b60201c565b62000d3e565b8060029080519060200190620000cd9291906200068f565b5050565b600033905090565b6000600360009054906101000a900473ffffffffffffffffffffffffffffffffffffffff16905081600360006101000a81548173ffffffffffffffffffffffffffffffffffffffff021916908373ffffffffffffffffffffffffffffffffffffffff1602179055508173ffffffffffffffffffffffffffffffffffffffff168173ffffffffffffffffffffffffffffffffffffffff167f8be0079c531659141344cd1fd0a4f28419497f9722a3daafe3b4186f6b6457e060405160405180910390a35050565b600073ffffffffffffffffffffffffffffffffffffffff168473ffffffffffffffffffffffffffffffffffffffff16141562000212576040517f08c379a0000000000000000000000000000000000000000000000000000000008152600401620002099062000a08565b60405180910390fd5b600062000224620000d160201b60201c565b9050600062000239856200038760201b60201c565b905060006200024e856200038760201b60201c565b905062000267836000898585896200045060201b60201c565b8460008088815260200190815260200160002060008973ffffffffffffffffffffffffffffffffffffffff1673ffffffffffffffffffffffffffffffffffffffff1681526020019081526020016000206000828254620002c8919062000ab1565b925050819055508673ffffffffffffffffffffffffffffffffffffffff16600073ffffffffffffffffffffffffffffffffffffffff168473ffffffffffffffffffffffffffffffffffffffff167fc3d58168c5ae7397731d063d5bbf3d657854427343f4c083240f7aacaa2d0f6289896040516200034892919062000a4c565b60405180910390a462000367836000898585896200045860201b60201c565b6200037e836000898989896200046060201b60201c565b50505050505050565b60606000600167ffffffffffffffff811115620003cd577f4e487b7100000000000000000000000000000000000000000000000000000000600052604160045260246000fd5b604051908082528060200260200182016040528015620003fc5781602001602082028036833780820191505090505b50905082816000815181106200043b577f4e487b7100000000000000000000000000000000000000000000000000000000600052603260045260246000fd5b60200260200101818152505080915050919050565b505050505050565b505050505050565b6200048c8473ffffffffffffffffffffffffffffffffffffffff166200065060201b62000cde1760201c565b1562000648578373ffffffffffffffffffffffffffffffffffffffff1663f23a6e6187878686866040518663ffffffff1660e01b8152600401620004d59594939291906200095e565b602060405180830381600087803b158015620004f057600080fd5b505af19250505080156200052457506040513d601f19601f8201168201806040525081019062000521919062000756565b60015b620005bc576200053362000c60565b806200054057506200057f565b806040517f08c379a0000000000000000000000000000000000000000000000000000000008152600401620005769190620009c2565b60405180910390fd5b6040517f08c379a0000000000000000000000000000000000000000000000000000000008152600401620005b39062000a2a565b60405180910390fd5b63f23a6e6160e01b7bffffffffffffffffffffffffffffffffffffffffffffffffffffffff1916817bffffffffffffffffffffffffffffffffffffffffffffffffffffffff19161462000646576040517f08c379a00000000000000000000000000000000000000000000000000000000081526004016200063d90620009e6565b60405180910390fd5b505b505050505050565b6000808273ffffffffffffffffffffffffffffffffffffffff16803b806020016040519081016040528181526000908060200190933c51119050919050565b8280546200069d9062000bae565b90600052602060002090601f016020900481019282620006c157600085556200070d565b82601f10620006dc57805160ff19168380011785556200070d565b828001600101855582156200070d579182015b828111156200070c578251825591602001919060010190620006ef565b5b5090506200071c919062000720565b5090565b5b808211156200073b57600081600090555060010162000721565b5090565b600081519050620007508162000d24565b92915050565b6000602082840312156200076957600080fd5b600062000779848285016200073f565b91505092915050565b6200078d8162000b0e565b82525050565b6000620007a08262000a79565b620007ac818562000a8f565b9350620007be81856020860162000b78565b620007c98162000c42565b840191505092915050565b6000620007e18262000a84565b620007ed818562000aa0565b9350620007ff81856020860162000b78565b6200080a8162000c42565b840191505092915050565b60006200082460288362000aa0565b91507f455243313135353a204552433131353552656365697665722072656a6563746560008301527f6420746f6b656e730000000000000000000000000000000000000000000000006020830152604082019050919050565b60006200088c60218362000aa0565b91507f455243313135353a206d696e7420746f20746865207a65726f2061646472657360008301527f73000000000000000000000000000000000000000000000000000000000000006020830152604082019050919050565b6000620008f460348362000aa0565b91507f455243313135353a207472616e7366657220746f206e6f6e2d4552433131353560008301527f526563656976657220696d706c656d656e7465720000000000000000000000006020830152604082019050919050565b620009588162000b6e565b82525050565b600060a08201905062000975600083018862000782565b62000984602083018762000782565b6200099360408301866200094d565b620009a260608301856200094d565b8181036080830152620009b6818462000793565b90509695505050505050565b60006020820190508181036000830152620009de8184620007d4565b905092915050565b6000602082019050818103600083015262000a018162000815565b9050919050565b6000602082019050818103600083015262000a23816200087d565b9050919050565b6000602082019050818103600083015262000a4581620008e5565b9050919050565b600060408201905062000a6360008301856200094d565b62000a7260208301846200094d565b9392505050565b600081519050919050565b600081519050919050565b600082825260208201905092915050565b600082825260208201905092915050565b600062000abe8262000b6e565b915062000acb8362000b6e565b9250827fffffffffffffffffffffffffffffffffffffffffffffffffffffffffffffffff0382111562000b035762000b0262000be4565b5b828201905092915050565b600062000b1b8262000b4e565b9050919050565b60007fffffffff0000000000000000000000000000000000000000000000000000000082169050919050565b600073ffffffffffffffffffffffffffffffffffffffff82169050919050565b6000819050919050565b60005b8381101562000b9857808201518184015260208101905062000b7b565b8381111562000ba8576000848401525b50505050565b6000600282049050600182168062000bc757607f821691505b6020821081141562000bde5762000bdd62000c13565b5b50919050565b7f4e487b7100000000000000000000000000000000000000000000000000000000600052601160045260246000fd5b7f4e487b7100000000000000000000000000000000000000000000000000000000600052602260045260246000fd5b6000601f19601f8301169050919050565b60008160e01c9050919050565b600060443d101562000c725762000d21565b60046000803e62000c8560005162000c53565b6308c379a0811462000c98575062000d21565b60405160043d036004823e80513d602482011167ffffffffffffffff8211171562000cc65750505062000d21565b808201805167ffffffffffffffff81111562000ce757505050505062000d21565b8060208301013d850181111562000d045750505050505062000d21565b62000d0f8262000c42565b60208401016040528296505050505050505b90565b62000d2f8162000b22565b811462000d3b57600080fd5b50565b61320e8062000d4e6000396000f3fe608060405234801561001057600080fd5b506004361061012b5760003560e01c8063635f2a09116100ad578063a22cb46511610071578063a22cb4651461032e578063ce89205b1461034a578063e985e9c514610368578063f242432a14610398578063f2fde38b146103b45761012b565b8063635f2a091461029c578063715018a6146102cc57806374000b6a146102d657806387fb46d0146102f25780638da5cb5b146103105761012b565b80632e1faf75116100f45780632e1faf75146101fa5780632eb2c2d61461021657806347597162146102325780634e1273f41461025057806352dfcb44146102805761012b565b8062fdd58e1461013057806301ffc9a714610160578063056fd8c2146101905780630e89341c146101ae578063156e29f6146101de575b600080fd5b61014a600480360381019061014591906121bc565b6103d0565b6040516101579190612cf6565b60405180910390f35b61017a60048036038101906101759190612302565b610499565b6040516101879190612af9565b60405180910390f35b61019861057b565b6040516101a59190612cf6565b60405180910390f35b6101c860048036038101906101c39190612354565b610580565b6040516101d59190612b14565b60405180910390f35b6101f860048036038101906101f39190612247565b610614565b005b610214600480360381019061020f9190612247565b61068a565b005b610230600480360381019061022b9190611fde565b6106ab565b005b61023a61074c565b6040516102479190612cf6565b60405180910390f35b61026a60048036038101906102659190612296565b610751565b6040516102779190612aa0565b60405180910390f35b61029a60048036038101906102959190612168565b610902565b005b6102b660048036038101906102b19190612354565b61096e565b6040516102c39190612b14565b60405180910390f35b6102d4610a76565b005b6102f060048036038101906102eb91906121f8565b610a8a565b005b6102fa610adb565b6040516103079190612cf6565b60405180910390f35b610318610ae0565b60405161032591906129c3565b60405180910390f35b6103486004803603810190610343919061212c565b610b0a565b005b610352610b20565b60405161035f9190612cf6565b60405180910390f35b610382600480360381019061037d9190611fa2565b610b25565b60405161038f9190612af9565b60405180910390f35b6103b260048036038101906103ad919061209d565b610bb9565b005b6103ce60048036038101906103c99190611f79565b610c5a565b005b60008073ffffffffffffffffffffffffffffffffffffffff168373ffffffffffffffffffffffffffffffffffffffff161415610441576040517f08c379a000000000000000000000000000000000000000000000000000000000815260040161043890612b96565b60405180910390fd5b60008083815260200190815260200160002060008473ffffffffffffffffffffffffffffffffffffffff1673ffffffffffffffffffffffffffffffffffffffff16815260200190815260200160002054905092915050565b60007fd9b67a26000000000000000000000000000000000000000000000000000000007bffffffffffffffffffffffffffffffffffffffffffffffffffffffff1916827bffffffffffffffffffffffffffffffffffffffffffffffffffffffff1916148061056457507f0e89341c000000000000000000000000000000000000000000000000000000007bffffffffffffffffffffffffffffffffffffffffffffffffffffffff1916827bffffffffffffffffffffffffffffffffffffffffffffffffffffffff1916145b80610574575061057382610d1d565b5b9050919050565b600081565b60606002805461058f90612fa0565b80601f01602080910402602001604051908101604052809291908181526020018280546105bb90612fa0565b80156106085780601f106105dd57610100808354040283529160200191610608565b820191906000526020600020905b8154815290600101906020018083116105eb57829003601f168201915b50505050509050919050565b61061c610d87565b600282148061062b5750600382145b61066a576040517f08c379a000000000000000000000000000000000000000000000000000000000815260040161066190612c36565b60405180910390fd5b61068583838360405180602001604052806000815250610e05565b505050565b6106a63384848460405180602001604052806000815250610bb9565b505050565b6106b3610fb6565b73ffffffffffffffffffffffffffffffffffffffff168573ffffffffffffffffffffffffffffffffffffffff1614806106f957506106f8856106f3610fb6565b610b25565b5b610738576040517f08c379a000000000000000000000000000000000000000000000000000000000815260040161072f90612bb6565b60405180910390fd5b6107458585858585610fbe565b5050505050565b600381565b60608151835114610797576040517f08c379a000000000000000000000000000000000000000000000000000000000815260040161078e90612c76565b60405180910390fd5b6000835167ffffffffffffffff8111156107da577f4e487b7100000000000000000000000000000000000000000000000000000000600052604160045260246000fd5b6040519080825280602002602001820160405280156108085781602001602082028036833780820191505090505b50905060005b84518110156108f7576108a1858281518110610853577f4e487b7100000000000000000000000000000000000000000000000000000000600052603260045260246000fd5b6020026020010151858381518110610894577f4e487b7100000000000000000000000000000000000000000000000000000000600052603260045260246000fd5b60200260200101516103d0565b8282815181106108da577f4e487b7100000000000000000000000000000000000000000000000000000000600052603260045260246000fd5b602002602001018181525050806108f090612fd2565b905061080e565b508091505092915050565b61090a610d87565b60006004600081548092919061091f90612fd2565b9190505590506109418382600160405180602001604052806000815250610e05565b81600560008381526020019081526020016000209080519060200190610968929190611c71565b50505050565b6060600060056000848152602001908152602001600020805461099090612fa0565b905014156109d3576040517f08c379a00000000000000000000000000000000000000000000000000000000081526004016109ca90612b56565b60405180910390fd5b6005600083815260200190815260200160002080546109f190612fa0565b80601f0160208091040260200160405190810160405280929190818152602001828054610a1d90612fa0565b8015610a6a5780601f10610a3f57610100808354040283529160200191610a6a565b820191906000526020600020905b815481529060010190602001808311610a4d57829003601f168201915b50505050509050919050565b610a7e610d87565b610a88600061132c565b565b610a92610d87565b8015610ab957610ab48360008460405180602001604052806000815250610e05565b610ad6565b610ad58360018460405180602001604052806000815250610e05565b5b505050565b600181565b6000600360009054906101000a900473ffffffffffffffffffffffffffffffffffffffff16905090565b610b1c610b15610fb6565b83836113f2565b5050565b600281565b6000600160008473ffffffffffffffffffffffffffffffffffffffff1673ffffffffffffffffffffffffffffffffffffffff16815260200190815260200160002060008373ffffffffffffffffffffffffffffffffffffffff1673ffffffffffffffffffffffffffffffffffffffff16815260200190815260200160002060009054906101000a900460ff16905092915050565b610bc1610fb6565b73ffffffffffffffffffffffffffffffffffffffff168573ffffffffffffffffffffffffffffffffffffffff161480610c075750610c0685610c01610fb6565b610b25565b5b610c46576040517f08c379a0000000000000000000000000000000000000000000000000000000008152600401610c3d90612bb6565b60405180910390fd5b610c53858585858561155f565b5050505050565b610c62610d87565b600073ffffffffffffffffffffffffffffffffffffffff168173ffffffffffffffffffffffffffffffffffffffff161415610cd2576040517f08c379a0000000000000000000000000000000000000000000000000000000008152600401610cc990612b76565b60405180910390fd5b610cdb8161132c565b50565b6000808273ffffffffffffffffffffffffffffffffffffffff16803b806020016040519081016040528181526000908060200190933c51119050919050565b60007f01ffc9a7000000000000000000000000000000000000000000000000000000007bffffffffffffffffffffffffffffffffffffffffffffffffffffffff1916827bffffffffffffffffffffffffffffffffffffffffffffffffffffffff1916149050919050565b610d8f610fb6565b73ffffffffffffffffffffffffffffffffffffffff16610dad610ae0565b73ffffffffffffffffffffffffffffffffffffffff1614610e03576040517f08c379a0000000000000000000000000000000000000000000000000000000008152600401610dfa90612c16565b60405180910390fd5b565b600073ffffffffffffffffffffffffffffffffffffffff168473ffffffffffffffffffffffffffffffffffffffff161415610e75576040517f08c379a0000000000000000000000000000000000000000000000000000000008152600401610e6c90612cb6565b60405180910390fd5b6000610e7f610fb6565b90506000610e8c856117fb565b90506000610e99856117fb565b9050610eaa836000898585896118c1565b8460008088815260200190815260200160002060008973ffffffffffffffffffffffffffffffffffffffff1673ffffffffffffffffffffffffffffffffffffffff1681526020019081526020016000206000828254610f099190612e94565b925050819055508673ffffffffffffffffffffffffffffffffffffffff16600073ffffffffffffffffffffffffffffffffffffffff168473ffffffffffffffffffffffffffffffffffffffff167fc3d58168c5ae7397731d063d5bbf3d657854427343f4c083240f7aacaa2d0f628989604051610f87929190612d11565b60405180910390a4610f9e836000898585896118c9565b610fad836000898989896118d1565b50505050505050565b600033905090565b8151835114611002576040517f08c379a0000000000000000000000000000000000000000000000000000000008152600401610ff990612c96565b60405180910390fd5b600073ffffffffffffffffffffffffffffffffffffffff168473ffffffffffffffffffffffffffffffffffffffff161415611072576040517f08c379a000000000000000000000000000000000000000000000000000000000815260040161106990612bd6565b60405180910390fd5b600061107c610fb6565b905061108c8187878787876118c1565b60005b84518110156112895760008582815181106110d3577f4e487b7100000000000000000000000000000000000000000000000000000000600052603260045260246000fd5b602002602001015190506000858381518110611118577f4e487b7100000000000000000000000000000000000000000000000000000000600052603260045260246000fd5b60200260200101519050600080600084815260200190815260200160002060008b73ffffffffffffffffffffffffffffffffffffffff1673ffffffffffffffffffffffffffffffffffffffff168152602001908152602001600020549050818110156111b9576040517f08c379a00000000000000000000000000000000000000000000000000000000081526004016111b090612bf6565b60405180910390fd5b81810360008085815260200190815260200160002060008c73ffffffffffffffffffffffffffffffffffffffff1673ffffffffffffffffffffffffffffffffffffffff168152602001908152602001600020819055508160008085815260200190815260200160002060008b73ffffffffffffffffffffffffffffffffffffffff1673ffffffffffffffffffffffffffffffffffffffff168152602001908152602001600020600082825461126e9190612e94565b925050819055505050508061128290612fd2565b905061108f565b508473ffffffffffffffffffffffffffffffffffffffff168673ffffffffffffffffffffffffffffffffffffffff168273ffffffffffffffffffffffffffffffffffffffff167f4a39dc06d4c0dbc64b70af90fd698a233a518aa5d07e595d983b8c0526c8f7fb8787604051611300929190612ac2565b60405180910390a46113168187878787876118c9565b611324818787878787611aa1565b505050505050565b6000600360009054906101000a900473ffffffffffffffffffffffffffffffffffffffff16905081600360006101000a81548173ffffffffffffffffffffffffffffffffffffffff021916908373ffffffffffffffffffffffffffffffffffffffff1602179055508173ffffffffffffffffffffffffffffffffffffffff168173ffffffffffffffffffffffffffffffffffffffff167f8be0079c531659141344cd1fd0a4f28419497f9722a3daafe3b4186f6b6457e060405160405180910390a35050565b8173ffffffffffffffffffffffffffffffffffffffff168373ffffffffffffffffffffffffffffffffffffffff161415611461576040517f08c379a000000000000000000000000000000000000000000000000000000000815260040161145890612c56565b60405180910390fd5b80600160008573ffffffffffffffffffffffffffffffffffffffff1673ffffffffffffffffffffffffffffffffffffffff16815260200190815260200160002060008473ffffffffffffffffffffffffffffffffffffffff1673ffffffffffffffffffffffffffffffffffffffff16815260200190815260200160002060006101000a81548160ff0219169083151502179055508173ffffffffffffffffffffffffffffffffffffffff168373ffffffffffffffffffffffffffffffffffffffff167f17307eab39ab6107e8899845ad3d59bd9653f200f220920489ca2b5937696c31836040516115529190612af9565b60405180910390a3505050565b600073ffffffffffffffffffffffffffffffffffffffff168473ffffffffffffffffffffffffffffffffffffffff1614156115cf576040517f08c379a00000000000000000000000000000000000000000000000000000000081526004016115c690612bd6565b60405180910390fd5b60006115d9610fb6565b905060006115e6856117fb565b905060006115f3856117fb565b90506116038389898585896118c1565b600080600088815260200190815260200160002060008a73ffffffffffffffffffffffffffffffffffffffff1673ffffffffffffffffffffffffffffffffffffffff1681526020019081526020016000205490508581101561169a576040517f08c379a000000000000000000000000000000000000000000000000000000000815260040161169190612bf6565b60405180910390fd5b85810360008089815260200190815260200160002060008b73ffffffffffffffffffffffffffffffffffffffff1673ffffffffffffffffffffffffffffffffffffffff168152602001908152602001600020819055508560008089815260200190815260200160002060008a73ffffffffffffffffffffffffffffffffffffffff1673ffffffffffffffffffffffffffffffffffffffff168152602001908152602001600020600082825461174f9190612e94565b925050819055508773ffffffffffffffffffffffffffffffffffffffff168973ffffffffffffffffffffffffffffffffffffffff168573ffffffffffffffffffffffffffffffffffffffff167fc3d58168c5ae7397731d063d5bbf3d657854427343f4c083240f7aacaa2d0f628a8a6040516117cc929190612d11565b60405180910390a46117e2848a8a86868a6118c9565b6117f0848a8a8a8a8a6118d1565b505050505050505050565b60606000600167ffffffffffffffff811115611840577f4e487b7100000000000000000000000000000000000000000000000000000000600052604160045260246000fd5b60405190808252806020026020018201604052801561186e5781602001602082028036833780820191505090505b50905082816000815181106118ac577f4e487b7100000000000000000000000000000000000000000000000000000000600052603260045260246000fd5b60200260200101818152505080915050919050565b505050505050565b505050505050565b6118f08473ffffffffffffffffffffffffffffffffffffffff16610cde565b15611a99578373ffffffffffffffffffffffffffffffffffffffff1663f23a6e6187878686866040518663ffffffff1660e01b8152600401611936959493929190612a46565b602060405180830381600087803b15801561195057600080fd5b505af192505050801561198157506040513d601f19601f8201168201806040525081019061197e919061232b565b60015b611a105761198d6130c6565b8061199857506119d5565b806040517f08c379a00000000000000000000000000000000000000000000000000000000081526004016119cc9190612b14565b60405180910390fd5b6040517f08c379a0000000000000000000000000000000000000000000000000000000008152600401611a0790612cd6565b60405180910390fd5b63f23a6e6160e01b7bffffffffffffffffffffffffffffffffffffffffffffffffffffffff1916817bffffffffffffffffffffffffffffffffffffffffffffffffffffffff191614611a97576040517f08c379a0000000000000000000000000000000000000000000000000000000008152600401611a8e90612b36565b60405180910390fd5b505b505050505050565b611ac08473ffffffffffffffffffffffffffffffffffffffff16610cde565b15611c69578373ffffffffffffffffffffffffffffffffffffffff1663bc197c8187878686866040518663ffffffff1660e01b8152600401611b069594939291906129de565b602060405180830381600087803b158015611b2057600080fd5b505af1925050508015611b5157506040513d601f19601f82011682018060405250810190611b4e919061232b565b60015b611be057611b5d6130c6565b80611b685750611ba5565b806040517f08c379a0000000000000000000000000000000000000000000000000000000008152600401611b9c9190612b14565b60405180910390fd5b6040517f08c379a0000000000000000000000000000000000000000000000000000000008152600401611bd790612cd6565b60405180910390fd5b63bc197c8160e01b7bffffffffffffffffffffffffffffffffffffffffffffffffffffffff1916817bffffffffffffffffffffffffffffffffffffffffffffffffffffffff191614611c67576040517f08c379a0000000000000000000000000000000000000000000000000000000008152600401611c5e90612b36565b60405180910390fd5b505b505050505050565b828054611c7d90612fa0565b90600052602060002090601f016020900481019282611c9f5760008555611ce6565b82601f10611cb857805160ff1916838001178555611ce6565b82800160010185558215611ce6579182015b82811115611ce5578251825591602001919060010190611cca565b5b509050611cf39190611cf7565b5090565b5b80821115611d10576000816000905550600101611cf8565b5090565b6000611d27611d2284612d6b565b612d3a565b90508083825260208201905082856020860282011115611d4657600080fd5b60005b85811015611d765781611d5c8882611e68565b845260208401935060208301925050600181019050611d49565b5050509392505050565b6000611d93611d8e84612d97565b612d3a565b90508083825260208201905082856020860282011115611db257600080fd5b60005b85811015611de25781611dc88882611f64565b845260208401935060208301925050600181019050611db5565b5050509392505050565b6000611dff611dfa84612dc3565b612d3a565b905082815260208101848484011115611e1757600080fd5b611e22848285612f5e565b509392505050565b6000611e3d611e3884612df3565b612d3a565b905082815260208101848484011115611e5557600080fd5b611e60848285612f5e565b509392505050565b600081359050611e778161317c565b92915050565b600082601f830112611e8e57600080fd5b8135611e9e848260208601611d14565b91505092915050565b600082601f830112611eb857600080fd5b8135611ec8848260208601611d80565b91505092915050565b600081359050611ee081613193565b92915050565b600081359050611ef5816131aa565b92915050565b600081519050611f0a816131aa565b92915050565b600082601f830112611f2157600080fd5b8135611f31848260208601611dec565b91505092915050565b600082601f830112611f4b57600080fd5b8135611f5b848260208601611e2a565b91505092915050565b600081359050611f73816131c1565b92915050565b600060208284031215611f8b57600080fd5b6000611f9984828501611e68565b91505092915050565b60008060408385031215611fb557600080fd5b6000611fc385828601611e68565b9250506020611fd485828601611e68565b9150509250929050565b600080600080600060a08688031215611ff657600080fd5b600061200488828901611e68565b955050602061201588828901611e68565b945050604086013567ffffffffffffffff81111561203257600080fd5b61203e88828901611ea7565b935050606086013567ffffffffffffffff81111561205b57600080fd5b61206788828901611ea7565b925050608086013567ffffffffffffffff81111561208457600080fd5b61209088828901611f10565b9150509295509295909350565b600080600080600060a086880312156120b557600080fd5b60006120c388828901611e68565b95505060206120d488828901611e68565b94505060406120e588828901611f64565b93505060606120f688828901611f64565b925050608086013567ffffffffffffffff81111561211357600080fd5b61211f88828901611f10565b9150509295509295909350565b6000806040838503121561213f57600080fd5b600061214d85828601611e68565b925050602061215e85828601611ed1565b9150509250929050565b6000806040838503121561217b57600080fd5b600061218985828601611e68565b925050602083013567ffffffffffffffff8111156121a657600080fd5b6121b285828601611f3a565b9150509250929050565b600080604083850312156121cf57600080fd5b60006121dd85828601611e68565b92505060206121ee85828601611f64565b9150509250929050565b60008060006060848603121561220d57600080fd5b600061221b86828701611e68565b935050602061222c86828701611f64565b925050604061223d86828701611ed1565b9150509250925092565b60008060006060848603121561225c57600080fd5b600061226a86828701611e68565b935050602061227b86828701611f64565b925050604061228c86828701611f64565b9150509250925092565b600080604083850312156122a957600080fd5b600083013567ffffffffffffffff8111156122c357600080fd5b6122cf85828601611e7d565b925050602083013567ffffffffffffffff8111156122ec57600080fd5b6122f885828601611ea7565b9150509250929050565b60006020828403121561231457600080fd5b600061232284828501611ee6565b91505092915050565b60006020828403121561233d57600080fd5b600061234b84828501611efb565b91505092915050565b60006020828403121561236657600080fd5b600061237484828501611f64565b91505092915050565b600061238983836129a5565b60208301905092915050565b61239e81612eea565b82525050565b60006123af82612e33565b6123b98185612e61565b93506123c483612e23565b8060005b838110156123f55781516123dc888261237d565b97506123e783612e54565b9250506001810190506123c8565b5085935050505092915050565b61240b81612efc565b82525050565b600061241c82612e3e565b6124268185612e72565b9350612436818560208601612f6d565b61243f816130a8565b840191505092915050565b600061245582612e49565b61245f8185612e83565b935061246f818560208601612f6d565b612478816130a8565b840191505092915050565b6000612490602883612e83565b91507f455243313135353a204552433131353552656365697665722072656a6563746560008301527f6420746f6b656e730000000000000000000000000000000000000000000000006020830152604082019050919050565b60006124f6601583612e83565b91507f486f75736520646f6573206e6f742065786973742e00000000000000000000006000830152602082019050919050565b6000612536602683612e83565b91507f4f776e61626c653a206e6577206f776e657220697320746865207a65726f206160008301527f64647265737300000000000000000000000000000000000000000000000000006020830152604082019050919050565b600061259c602a83612e83565b91507f455243313135353a2061646472657373207a65726f206973206e6f742061207660008301527f616c6964206f776e6572000000000000000000000000000000000000000000006020830152604082019050919050565b6000612602602e83612e83565b91507f455243313135353a2063616c6c6572206973206e6f7420746f6b656e206f776e60008301527f6572206f7220617070726f7665640000000000000000000000000000000000006020830152604082019050919050565b6000612668602583612e83565b91507f455243313135353a207472616e7366657220746f20746865207a65726f20616460008301527f64726573730000000000000000000000000000000000000000000000000000006020830152604082019050919050565b60006126ce602a83612e83565b91507f455243313135353a20696e73756666696369656e742062616c616e636520666f60008301527f72207472616e73666572000000000000000000000000000000000000000000006020830152604082019050919050565b6000612734602083612e83565b91507f4f776e61626c653a2063616c6c6572206973206e6f7420746865206f776e65726000830152602082019050919050565b6000612774601083612e83565b91507f496e76616c696420746f6b656e204944000000000000000000000000000000006000830152602082019050919050565b60006127b4602983612e83565b91507f455243313135353a2073657474696e6720617070726f76616c2073746174757360008301527f20666f722073656c6600000000000000000000000000000000000000000000006020830152604082019050919050565b600061281a602983612e83565b91507f455243313135353a206163636f756e747320616e6420696473206c656e67746860008301527f206d69736d6174636800000000000000000000000000000000000000000000006020830152604082019050919050565b6000612880602883612e83565b91507f455243313135353a2069647320616e6420616d6f756e7473206c656e6774682060008301527f6d69736d617463680000000000000000000000000000000000000000000000006020830152604082019050919050565b60006128e6602183612e83565b91507f455243313135353a206d696e7420746f20746865207a65726f2061646472657360008301527f73000000000000000000000000000000000000000000000000000000000000006020830152604082019050919050565b600061294c603483612e83565b91507f455243313135353a207472616e7366657220746f206e6f6e2d4552433131353560008301527f526563656976657220696d706c656d656e7465720000000000000000000000006020830152604082019050919050565b6129ae81612f54565b82525050565b6129bd81612f54565b82525050565b60006020820190506129d86000830184612395565b92915050565b600060a0820190506129f36000830188612395565b612a006020830187612395565b8181036040830152612a1281866123a4565b90508181036060830152612a2681856123a4565b90508181036080830152612a3a8184612411565b90509695505050505050565b600060a082019050612a5b6000830188612395565b612a686020830187612395565b612a7560408301866129b4565b612a8260608301856129b4565b8181036080830152612a948184612411565b90509695505050505050565b60006020820190508181036000830152612aba81846123a4565b905092915050565b60006040820190508181036000830152612adc81856123a4565b90508181036020830152612af081846123a4565b90509392505050565b6000602082019050612b0e6000830184612402565b92915050565b60006020820190508181036000830152612b2e818461244a565b905092915050565b60006020820190508181036000830152612b4f81612483565b9050919050565b60006020820190508181036000830152612b6f816124e9565b9050919050565b60006020820190508181036000830152612b8f81612529565b9050919050565b60006020820190508181036000830152612baf8161258f565b9050919050565b60006020820190508181036000830152612bcf816125f5565b9050919050565b60006020820190508181036000830152612bef8161265b565b9050919050565b60006020820190508181036000830152612c0f816126c1565b9050919050565b60006020820190508181036000830152612c2f81612727565b9050919050565b60006020820190508181036000830152612c4f81612767565b9050919050565b60006020820190508181036000830152612c6f816127a7565b9050919050565b60006020820190508181036000830152612c8f8161280d565b9050919050565b60006020820190508181036000830152612caf81612873565b9050919050565b60006020820190508181036000830152612ccf816128d9565b9050919050565b60006020820190508181036000830152612cef8161293f565b9050919050565b6000602082019050612d0b60008301846129b4565b92915050565b6000604082019050612d2660008301856129b4565b612d3360208301846129b4565b9392505050565b6000604051905081810181811067ffffffffffffffff82111715612d6157612d60613079565b5b8060405250919050565b600067ffffffffffffffff821115612d8657612d85613079565b5b602082029050602081019050919050565b600067ffffffffffffffff821115612db257612db1613079565b5b602082029050602081019050919050565b600067ffffffffffffffff821115612dde57612ddd613079565b5b601f19601f8301169050602081019050919050565b600067ffffffffffffffff821115612e0e57612e0d613079565b5b601f19601f8301169050602081019050919050565b6000819050602082019050919050565b600081519050919050565b600081519050919050565b600081519050919050565b6000602082019050919050565b600082825260208201905092915050565b600082825260208201905092915050565b600082825260208201905092915050565b6000612e9f82612f54565b9150612eaa83612f54565b9250827fffffffffffffffffffffffffffffffffffffffffffffffffffffffffffffffff03821115612edf57612ede61301b565b5b828201905092915050565b6000612ef582612f34565b9050919050565b60008115159050919050565b60007fffffffff0000000000000000000000000000000000000000000000000000000082169050919050565b600073ffffffffffffffffffffffffffffffffffffffff82169050919050565b6000819050919050565b82818337600083830152505050565b60005b83811015612f8b578082015181840152602081019050612f70565b83811115612f9a576000848401525b50505050565b60006002820490506001821680612fb857607f821691505b60208210811415612fcc57612fcb61304a565b5b50919050565b6000612fdd82612f54565b91507fffffffffffffffffffffffffffffffffffffffffffffffffffffffffffffffff8214156130105761300f61301b565b5b600182019050919050565b7f4e487b7100000000000000000000000000000000000000000000000000000000600052601160045260246000fd5b7f4e487b7100000000000000000000000000000000000000000000000000000000600052602260045260246000fd5b7f4e487b7100000000000000000000000000000000000000000000000000000000600052604160045260246000fd5b6000601f19601f8301169050919050565b60008160e01c9050919050565b600060443d10156130d657613179565b60046000803e6130e76000516130b9565b6308c379a081146130f85750613179565b60405160043d036004823e80513d602482011167ffffffffffffffff8211171561312457505050613179565b808201805167ffffffffffffffff811115613143575050505050613179565b8060208301013d850181111561315e57505050505050613179565b613167826130a8565b60208401016040528296505050505050505b90565b61318581612eea565b811461319057600080fd5b50565b61319c81612efc565b81146131a757600080fd5b50565b6131b381612f08565b81146131be57600080fd5b50565b6131ca81612f54565b81146131d557600080fd5b5056fea264697066735822122042953d1f042244b99d0b4be2025ab0ae2f6ff77073ae138dad6f8f1e4145708864736f6c6343000800003368747470733a2f2f67616d652e6578616d706c652e636f6d2f6170692f6974656d2f7b69647d2e6a736f6e",
  "immutableReferences": {},
  "source": "// SPDX-License-Identifier: MIT\npragma solidity ^0.8.0;\n\nimport \"@openzeppelin/contracts/token/ERC1155/ERC1155.sol\";\nimport \"@openzeppelin/contracts/access/Ownable.sol\";\n\ncontract BigRichManGame is ERC1155, Ownable {\n    uint256 public constant TOKEN_GOLD = 0; // ID\n    uint256 public constant TOKEN_SILVER = 1; // ID\n    uint256 public constant LAND = 2; // \n    uint256 public constant HOUSE = 3; // \n\n    // ID\n    uint256 private _nextHouseId = 100; // 100ID\n\n    // map to the URLs storing the information of houses\n    mapping(uint256 => string) private _houseMetadataUrls;\n\n    constructor() ERC1155(\"https://game.example.com/api/item/{id}.json\") {\n        _mint(msg.sender, TOKEN_GOLD, 10000, \"\");\n        _mint(msg.sender, TOKEN_SILVER, 10000, \"\");\n    }\n\n    function mint(address account, uint256 id, uint256 amount) public onlyOwner {\n        require(id == LAND || id == HOUSE, \"Invalid token ID\");\n        _mint(account, id, amount, \"\");\n    }\n\n    function mintCurrency(address account, uint256 amount, bool isGold) public onlyOwner {\n        if (isGold) {\n            _mint(account, TOKEN_GOLD, amount, \"\");\n        } else {\n            _mint(account, TOKEN_SILVER, amount, \"\");\n        }\n    }\n\n    function transferToken(address to, uint256 id, uint256 amount) public {\n        safeTransferFrom(msg.sender, to, id, amount, \"\");\n    }\n\n    function mintHouse(address account, string memory metadataUrl) public onlyOwner {\n        uint256 currentHouseId = _nextHouseId++;\n        _mint(account, currentHouseId, 1, \"\");\n        _houseMetadataUrls[currentHouseId] = metadataUrl;\n    }\n\n    function getHouseMetadata(uint256 houseId) public view returns (string memory) {\n        require(bytes(_houseMetadataUrls[houseId]).length != 0, \"House does not exist.\");\n        return _houseMetadataUrls[houseId];\n    }\n\n}",
  "sourcePath": "/Users/keyuhan/Desktop/monopoly/contracts/first_token.sol",
  "compiler": {
    "name": "solc",
    "version": "0.8.0+commit.c7dfd78e.Emscripten.clang"
  },
  "schemaVersion": "3.4.16",
  "updatedAt": "2024-10-28T15:55:29.210Z",
  "networkType": "ethereum",
  "devdoc": {
    "kind": "dev",
    "methods": {
      "balanceOf(address,uint256)": {
        "details": "See {IERC1155-balanceOf}. Requirements: - `account` cannot be the zero address."
      },
      "balanceOfBatch(address[],uint256[])": {
        "details": "See {IERC1155-balanceOfBatch}. Requirements: - `accounts` and `ids` must have the same length."
      },
      "isApprovedForAll(address,address)": {
        "details": "See {IERC1155-isApprovedForAll}."
      },
      "owner()": {
        "details": "Returns the address of the current owner."
      },
      "renounceOwnership()": {
        "details": "Leaves the contract without owner. It will not be possible to call `onlyOwner` functions. Can only be called by the current owner. NOTE: Renouncing ownership will leave the contract without an owner, thereby disabling any functionality that is only available to the owner."
      },
      "safeBatchTransferFrom(address,address,uint256[],uint256[],bytes)": {
        "details": "See {IERC1155-safeBatchTransferFrom}."
      },
      "safeTransferFrom(address,address,uint256,uint256,bytes)": {
        "details": "See {IERC1155-safeTransferFrom}."
      },
      "setApprovalForAll(address,bool)": {
        "details": "See {IERC1155-setApprovalForAll}."
      },
      "supportsInterface(bytes4)": {
        "details": "See {IERC165-supportsInterface}."
      },
      "transferOwnership(address)": {
        "details": "Transfers ownership of the contract to a new account (`newOwner`). Can only be called by the current owner."
      },
      "uri(uint256)": {
        "details": "See {IERC1155MetadataURI-uri}. This implementation returns the same URI for *all* token types. It relies on the token type ID substitution mechanism https://eips.ethereum.org/EIPS/eip-1155#metadata[defined in the EIP]. Clients calling this function must replace the `\\{id\\}` substring with the actual token type ID."
      }
    },
    "version": 1
  },
  "userdoc": {
    "kind": "user",
    "methods": {},
    "version": 1
  }
}