{
  "contractName": "MonopolyGame",
  "abi": [
    {
      "anonymous": false,
      "inputs": [
        {
          "indexed": true,
          "internalType": "address",
          "name": "player",
          "type": "address"
        },
        {
          "indexed": false,
          "internalType": "uint256",
          "name": "dice1",
          "type": "uint256"
        },
        {
          "indexed": false,
          "internalType": "uint256",
          "name": "dice2",
          "type": "uint256"
        }
      ],
      "name": "DiceRolled",
      "type": "event"
    },
    {
      "anonymous": false,
      "inputs": [
        {
          "indexed": false,
          "internalType": "uint256",
          "name": "roomId",
          "type": "uint256"
        },
        {
          "indexed": false,
          "internalType": "address",
          "name": "player",
          "type": "address"
        }
      ],
      "name": "PlayerJoined",
      "type": "event"
    },
    {
      "anonymous": false,
      "inputs": [
        {
          "indexed": false,
          "internalType": "uint256",
          "name": "roomId",
          "type": "uint256"
        },
        {
          "indexed": false,
          "internalType": "address",
          "name": "player",
          "type": "address"
        }
      ],
      "name": "PlayerLeft",
      "type": "event"
    },
    {
      "anonymous": false,
      "inputs": [
        {
          "indexed": false,
          "internalType": "address",
          "name": "player",
          "type": "address"
        },
        {
          "indexed": false,
          "internalType": "uint256",
          "name": "newPosition",
          "type": "uint256"
        }
      ],
      "name": "PlayerMoved",
      "type": "event"
    },
    {
      "anonymous": false,
      "inputs": [
        {
          "indexed": false,
          "internalType": "uint256",
          "name": "roomId",
          "type": "uint256"
        },
        {
          "indexed": false,
          "internalType": "address",
          "name": "creator",
          "type": "address"
        },
        {
          "indexed": false,
          "internalType": "uint256",
          "name": "maxPlayers",
          "type": "uint256"
        },
        {
          "indexed": false,
          "internalType": "string",
          "name": "gameMode",
          "type": "string"
        }
      ],
      "name": "RoomCreated",
      "type": "event"
    },
    {
      "inputs": [
        {
          "internalType": "address",
          "name": "",
          "type": "address"
        }
      ],
      "name": "addr_to_room_id",
      "outputs": [
        {
          "internalType": "uint256",
          "name": "",
          "type": "uint256"
        }
      ],
      "stateMutability": "view",
      "type": "function",
      "constant": true
    },
    {
      "inputs": [],
      "name": "nextRoomId",
      "outputs": [
        {
          "internalType": "uint256",
          "name": "",
          "type": "uint256"
        }
      ],
      "stateMutability": "view",
      "type": "function",
      "constant": true
    },
    {
      "inputs": [
        {
          "internalType": "address",
          "name": "",
          "type": "address"
        }
      ],
      "name": "playerPositions",
      "outputs": [
        {
          "internalType": "uint256",
          "name": "",
          "type": "uint256"
        }
      ],
      "stateMutability": "view",
      "type": "function",
      "constant": true
    },
    {
      "inputs": [
        {
          "internalType": "uint256",
          "name": "",
          "type": "uint256"
        }
      ],
      "name": "rooms",
      "outputs": [
        {
          "internalType": "uint256",
          "name": "id",
          "type": "uint256"
        },
        {
          "internalType": "address",
          "name": "creator",
          "type": "address"
        },
        {
          "internalType": "uint256",
          "name": "maxPlayers",
          "type": "uint256"
        },
        {
          "internalType": "string",
          "name": "gameMode",
          "type": "string"
        },
        {
          "internalType": "bytes32",
          "name": "passwordHash",
          "type": "bytes32"
        }
      ],
      "stateMutability": "view",
      "type": "function",
      "constant": true
    },
    {
      "inputs": [
        {
          "internalType": "uint256",
          "name": "maxPlayers",
          "type": "uint256"
        },
        {
          "internalType": "string",
          "name": "gameMode",
          "type": "string"
        },
        {
          "internalType": "string",
          "name": "password",
          "type": "string"
        }
      ],
      "name": "createRoom",
      "outputs": [
        {
          "internalType": "uint256",
          "name": "",
          "type": "uint256"
        }
      ],
      "stateMutability": "payable",
      "type": "function",
      "payable": true
    },
    {
      "inputs": [
        {
          "internalType": "uint256",
          "name": "roomId",
          "type": "uint256"
        },
        {
          "internalType": "string",
          "name": "password",
          "type": "string"
        }
      ],
      "name": "joinRoom",
      "outputs": [],
      "stateMutability": "payable",
      "type": "function",
      "payable": true
    },
    {
      "inputs": [
        {
          "internalType": "uint256",
          "name": "roomId",
          "type": "uint256"
        }
      ],
      "name": "leaveRoom",
      "outputs": [],
      "stateMutability": "nonpayable",
      "type": "function"
    },
    {
      "inputs": [
        {
          "internalType": "uint256",
          "name": "roomId",
          "type": "uint256"
        }
      ],
      "name": "checkPlayerNumInRoom",
      "outputs": [
        {
          "internalType": "uint256",
          "name": "",
          "type": "uint256"
        },
        {
          "internalType": "uint256",
          "name": "",
          "type": "uint256"
        }
      ],
      "stateMutability": "view",
      "type": "function",
      "constant": true
    },
    {
      "inputs": [
        {
          "internalType": "uint256",
          "name": "roomId",
          "type": "uint256"
        }
      ],
      "name": "getRoom",
      "outputs": [
        {
          "components": [
            {
              "internalType": "uint256",
              "name": "id",
              "type": "uint256"
            },
            {
              "internalType": "address",
              "name": "creator",
              "type": "address"
            },
            {
              "internalType": "uint256",
              "name": "maxPlayers",
              "type": "uint256"
            },
            {
              "internalType": "string",
              "name": "gameMode",
              "type": "string"
            },
            {
              "internalType": "address[]",
              "name": "players",
              "type": "address[]"
            },
            {
              "internalType": "bytes32",
              "name": "passwordHash",
              "type": "bytes32"
            }
          ],
          "internalType": "struct MonopolyGame.Room",
          "name": "",
          "type": "tuple"
        }
      ],
      "stateMutability": "view",
      "type": "function",
      "constant": true
    },
    {
      "inputs": [],
      "name": "rollDice",
      "outputs": [
        {
          "internalType": "uint256",
          "name": "",
          "type": "uint256"
        },
        {
          "internalType": "uint256",
          "name": "",
          "type": "uint256"
        }
      ],
      "stateMutability": "nonpayable",
      "type": "function"
    },
    {
      "inputs": [],
      "name": "movePlayer",
      "outputs": [],
      "stateMutability": "nonpayable",
      "type": "function"
    },
    {
      "inputs": [
        {
          "internalType": "uint256",
          "name": "roomId",
          "type": "uint256"
        }
      ],
      "name": "refund",
      "outputs": [],
      "stateMutability": "nonpayable",
      "type": "function"
    }
  ],
  "bytecode": "0x60806040526001600255600060045534801561001a57600080fd5b506127348061002a6000396000f3fe6080604052600436106100a75760003560e01c80637fcd07d1116100645780637fcd07d1146101be578063837e7cc6146101ee578063a0c4e5661461021a578063a574a1b714610258578063afcb20f114610295578063b01a5da2146102d2576100a7565b806307a52cab146100ac5780631bae0ac8146100d7578063278ecde1146101185780635284b1f4146101415780636d8a74cb14610158578063779db57314610195575b600080fd5b3480156100b857600080fd5b506100c16102ee565b6040516100ce9190612225565b60405180910390f35b3480156100e357600080fd5b506100fe60048036038101906100f99190611b93565b6102f4565b60405161010f9594939291906122b5565b60405180910390f35b34801561012457600080fd5b5061013f600480360381019061013a9190611b93565b6103d2565b005b34801561014d57600080fd5b50610156610a2e565b005b34801561016457600080fd5b5061017f600480360381019061017a9190611b93565b610b64565b60405161018c9190612203565b60405180910390f35b3480156101a157600080fd5b506101bc60048036038101906101b79190611b93565b610d25565b005b6101d860048036038101906101d39190611c10565b611231565b6040516101e59190612225565b60405180910390f35b3480156101fa57600080fd5b506102036114c2565b60405161021192919061230f565b60405180910390f35b34801561022657600080fd5b50610241600480360381019061023c9190611b93565b611627565b60405161024f92919061230f565b60405180910390f35b34801561026457600080fd5b5061027f600480360381019061027a9190611b6a565b611658565b60405161028c9190612225565b60405180910390f35b3480156102a157600080fd5b506102bc60048036038101906102b79190611b6a565b611670565b6040516102c99190612225565b60405180910390f35b6102ec60048036038101906102e79190611bbc565b611688565b005b60025481565b60016020528060005260406000206000915090508060000154908060010160009054906101000a900473ffffffffffffffffffffffffffffffffffffffff16908060020154908060030180546103499061251c565b80601f01602080910402602001604051908101604052809291908181526020018280546103759061251c565b80156103c25780601f10610397576101008083540402835291602001916103c2565b820191906000526020600020905b8154815290600101906020018083116103a557829003601f168201915b5050505050908060050154905085565b60006001600083815260200190815260200160002090503373ffffffffffffffffffffffffffffffffffffffff168160010160009054906101000a900473ffffffffffffffffffffffffffffffffffffffff1673ffffffffffffffffffffffffffffffffffffffff16148061044d575061044c8233611845565b5b61048c576040517f08c379a000000000000000000000000000000000000000000000000000000000815260040161048390612183565b60405180910390fd5b6000670de0b6b3a76400009050804710156104dc576040517f08c379a00000000000000000000000000000000000000000000000000000000081526004016104d3906121e3565b60405180910390fd5b3373ffffffffffffffffffffffffffffffffffffffff168260010160009054906101000a900473ffffffffffffffffffffffffffffffffffffffff1673ffffffffffffffffffffffffffffffffffffffff1614156107345760005b826004018054905081101561064e576000836004018281548110610584577f4e487b7100000000000000000000000000000000000000000000000000000000600052603260045260246000fd5b9060005260206000200160009054906101000a900473ffffffffffffffffffffffffffffffffffffffff1690508073ffffffffffffffffffffffffffffffffffffffff166108fc849081150290604051600060405180830381858888f193505050501580156105f7573d6000803e3d6000fd5b506000808273ffffffffffffffffffffffffffffffffffffffff1673ffffffffffffffffffffffffffffffffffffffff168152602001908152602001600020600090555080806106469061254e565b915050610537565b50600160008481526020019081526020016000206000808201600090556001820160006101000a81549073ffffffffffffffffffffffffffffffffffffffff021916905560028201600090556003820160006106aa91906118fb565b6004820160006106ba919061193b565b600582016000905550508160010160009054906101000a900473ffffffffffffffffffffffffffffffffffffffff1673ffffffffffffffffffffffffffffffffffffffff166108fc829081150290604051600060405180830381858888f1935050505015801561072e573d6000803e3d6000fd5b506109f0565b60005b8260040180549050811015610965573373ffffffffffffffffffffffffffffffffffffffff16836004018281548110610799577f4e487b7100000000000000000000000000000000000000000000000000000000600052603260045260246000fd5b9060005260206000200160009054906101000a900473ffffffffffffffffffffffffffffffffffffffff1673ffffffffffffffffffffffffffffffffffffffff1614156109525782600401600184600401805490506107f89190612460565b8154811061082f577f4e487b7100000000000000000000000000000000000000000000000000000000600052603260045260246000fd5b9060005260206000200160009054906101000a900473ffffffffffffffffffffffffffffffffffffffff16836004018281548110610896577f4e487b7100000000000000000000000000000000000000000000000000000000600052603260045260246000fd5b9060005260206000200160006101000a81548173ffffffffffffffffffffffffffffffffffffffff021916908373ffffffffffffffffffffffffffffffffffffffff16021790555082600401805480610918577f4e487b7100000000000000000000000000000000000000000000000000000000600052603160045260246000fd5b6001900381819060005260206000200160006101000a81549073ffffffffffffffffffffffffffffffffffffffff02191690559055610965565b808061095d9061254e565b915050610737565b506000803373ffffffffffffffffffffffffffffffffffffffff1673ffffffffffffffffffffffffffffffffffffffff168152602001908152602001600020600090553373ffffffffffffffffffffffffffffffffffffffff166108fc829081150290604051600060405180830381858888f193505050501580156109ee573d6000803e3d6000fd5b505b7fb2bd643202385c64d9814c6c3fa61b1ba098d6652292e9d9a6f1a0cdae6eb8248333604051610a21929190612240565b60405180910390a1505050565b600080610a396114c2565b9150915060008183610a4b919061240a565b9050602881600360003373ffffffffffffffffffffffffffffffffffffffff1673ffffffffffffffffffffffffffffffffffffffff16815260200190815260200160002054610a9a919061240a565b610aa491906125c5565b600360003373ffffffffffffffffffffffffffffffffffffffff1673ffffffffffffffffffffffffffffffffffffffff168152602001908152602001600020819055507fe0a1b340a14d47a5482875f738abb6e2c70f533d80188606facc527b70cbd21233600360003373ffffffffffffffffffffffffffffffffffffffff1673ffffffffffffffffffffffffffffffffffffffff16815260200190815260200160002054604051610b579291906120fa565b60405180910390a1505050565b610b6c61195c565b600160008381526020019081526020016000206040518060c0016040529081600082015481526020016001820160009054906101000a900473ffffffffffffffffffffffffffffffffffffffff1673ffffffffffffffffffffffffffffffffffffffff1673ffffffffffffffffffffffffffffffffffffffff16815260200160028201548152602001600382018054610c049061251c565b80601f0160208091040260200160405190810160405280929190818152602001828054610c309061251c565b8015610c7d5780601f10610c5257610100808354040283529160200191610c7d565b820191906000526020600020905b815481529060010190602001808311610c6057829003601f168201915b5050505050815260200160048201805480602002602001604051908101604052809291908181526020018280548015610d0b57602002820191906000526020600020905b8160009054906101000a900473ffffffffffffffffffffffffffffffffffffffff1673ffffffffffffffffffffffffffffffffffffffff1681526020019060010190808311610cc1575b505050505081526020016005820154815250509050919050565b60006001600083815260200190815260200160002090503373ffffffffffffffffffffffffffffffffffffffff168160010160009054906101000a900473ffffffffffffffffffffffffffffffffffffffff1673ffffffffffffffffffffffffffffffffffffffff161480610da05750610d9f8233611845565b5b610ddf576040517f08c379a0000000000000000000000000000000000000000000000000000000008152600401610dd690612183565b60405180910390fd5b3373ffffffffffffffffffffffffffffffffffffffff168160010160009054906101000a900473ffffffffffffffffffffffffffffffffffffffff1673ffffffffffffffffffffffffffffffffffffffff161415610f7f5760005b8160040180549050811015610f0457600080836004018381548110610e88577f4e487b7100000000000000000000000000000000000000000000000000000000600052603260045260246000fd5b9060005260206000200160009054906101000a900473ffffffffffffffffffffffffffffffffffffffff1673ffffffffffffffffffffffffffffffffffffffff1673ffffffffffffffffffffffffffffffffffffffff168152602001908152602001600020600090558080610efc9061254e565b915050610e3a565b50600160008381526020019081526020016000206000808201600090556001820160006101000a81549073ffffffffffffffffffffffffffffffffffffffff02191690556002820160009055600382016000610f6091906118fb565b600482016000610f70919061193b565b600582016000905550506111f4565b60005b81600401805490508110156111b0573373ffffffffffffffffffffffffffffffffffffffff16826004018281548110610fe4577f4e487b7100000000000000000000000000000000000000000000000000000000600052603260045260246000fd5b9060005260206000200160009054906101000a900473ffffffffffffffffffffffffffffffffffffffff1673ffffffffffffffffffffffffffffffffffffffff16141561119d5781600401600183600401805490506110439190612460565b8154811061107a577f4e487b7100000000000000000000000000000000000000000000000000000000600052603260045260246000fd5b9060005260206000200160009054906101000a900473ffffffffffffffffffffffffffffffffffffffff168260040182815481106110e1577f4e487b7100000000000000000000000000000000000000000000000000000000600052603260045260246000fd5b9060005260206000200160006101000a81548173ffffffffffffffffffffffffffffffffffffffff021916908373ffffffffffffffffffffffffffffffffffffffff16021790555081600401805480611163577f4e487b7100000000000000000000000000000000000000000000000000000000600052603160045260246000fd5b6001900381819060005260206000200160006101000a81549073ffffffffffffffffffffffffffffffffffffffff021916905590556111b0565b80806111a89061254e565b915050610f82565b506000803373ffffffffffffffffffffffffffffffffffffffff1673ffffffffffffffffffffffffffffffffffffffff168152602001908152602001600020600090555b7fb2bd643202385c64d9814c6c3fa61b1ba098d6652292e9d9a6f1a0cdae6eb8248233604051611225929190612240565b60405180910390a15050565b6000670de0b6b3a7640000341461127d576040517f08c379a0000000000000000000000000000000000000000000000000000000008152600401611274906121c3565b60405180910390fd5b6040518060c0016040528060025481526020013373ffffffffffffffffffffffffffffffffffffffff168152602001858152602001848152602001600067ffffffffffffffff8111156112f9577f4e487b7100000000000000000000000000000000000000000000000000000000600052604160045260246000fd5b6040519080825280602002602001820160405280156113275781602001602082028036833780820191505090505b5081526020018360405160200161133e91906120a6565b604051602081830303815290604052805190602001208152506001600060025481526020019081526020016000206000820151816000015560208201518160010160006101000a81548173ffffffffffffffffffffffffffffffffffffffff021916908373ffffffffffffffffffffffffffffffffffffffff1602179055506040820151816002015560608201518160030190805190602001906113e39291906119ab565b506080820151816004019080519060200190611400929190611a31565b5060a082015181600501559050506002546000803373ffffffffffffffffffffffffffffffffffffffff1673ffffffffffffffffffffffffffffffffffffffff168152602001908152602001600020819055507f7f74d7384a8aef956fbcfeef5c43386419836b40e2cf4ba72b144901b865dbf360025433868660405161148a9493929190612269565b60405180910390a1600260008154809291906114a59061254e565b919050555060016002546114b99190612460565b90509392505050565b6000806114ce336118a1565b61150d576040517f08c379a0000000000000000000000000000000000000000000000000000000008152600401611504906121a3565b60405180910390fd5b600060016006423360045460405160200161152a939291906120bd565b6040516020818303038152906040528051906020012060001c61154d91906125c5565b611557919061240a565b905060006001600642336001600454611570919061240a565b604051602001611582939291906120bd565b6040516020818303038152906040528051906020012060001c6115a591906125c5565b6115af919061240a565b90506002600460008282546115c4919061240a565b925050819055503373ffffffffffffffffffffffffffffffffffffffff167f9f3d1596f73d6658ea5ee6155f974b2a6b43833dab39a0ca2e14656a57330fe8838360405161161392919061230f565b60405180910390a281819350935050509091565b6000806000600160008581526020019081526020016000209050806002015481600401805490509250925050915091565b60006020528060005260406000206000915090505481565b60036020528060005260406000206000915090505481565b670de0b6b3a764000034146116d2576040517f08c379a00000000000000000000000000000000000000000000000000000000081526004016116c990612143565b60405180910390fd5b60006001600084815260200190815260200160002090508060020154816004018054905010611736576040517f08c379a000000000000000000000000000000000000000000000000000000000815260040161172d90612163565b60405180910390fd5b8160405160200161174791906120a6565b604051602081830303815290604052805190602001208160050154146117a2576040517f08c379a000000000000000000000000000000000000000000000000000000000815260040161179990612123565b60405180910390fd5b80600401339080600181540180825580915050600190039060005260206000200160009091909190916101000a81548173ffffffffffffffffffffffffffffffffffffffff021916908373ffffffffffffffffffffffffffffffffffffffff1602179055507f87969bc7faf902221a147b95ceba76e011c5efb0339a0a8ee7a2bb82d9cfbbd68333604051611838929190612240565b60405180910390a1505050565b6000826000808473ffffffffffffffffffffffffffffffffffffffff1673ffffffffffffffffffffffffffffffffffffffff168152602001908152602001600020541415611896576000905061189b565b600190505b92915050565b6000806000808473ffffffffffffffffffffffffffffffffffffffff1673ffffffffffffffffffffffffffffffffffffffff16815260200190815260200160002054146118f157600190506118f6565b600090505b919050565b5080546119079061251c565b6000825580601f106119195750611938565b601f0160209004906000526020600020908101906119379190611abb565b5b50565b50805460008255906000526020600020908101906119599190611abb565b50565b6040518060c0016040528060008152602001600073ffffffffffffffffffffffffffffffffffffffff168152602001600081526020016060815260200160608152602001600080191681525090565b8280546119b79061251c565b90600052602060002090601f0160209004810192826119d95760008555611a20565b82601f106119f257805160ff1916838001178555611a20565b82800160010185558215611a20579182015b82811115611a1f578251825591602001919060010190611a04565b5b509050611a2d9190611abb565b5090565b828054828255906000526020600020908101928215611aaa579160200282015b82811115611aa95782518260006101000a81548173ffffffffffffffffffffffffffffffffffffffff021916908373ffffffffffffffffffffffffffffffffffffffff16021790555091602001919060010190611a51565b5b509050611ab79190611abb565b5090565b5b80821115611ad4576000816000905550600101611abc565b5090565b6000611aeb611ae684612369565b612338565b905082815260208101848484011115611b0357600080fd5b611b0e8482856124da565b509392505050565b600081359050611b25816126d0565b92915050565b600082601f830112611b3c57600080fd5b8135611b4c848260208601611ad8565b91505092915050565b600081359050611b64816126e7565b92915050565b600060208284031215611b7c57600080fd5b6000611b8a84828501611b16565b91505092915050565b600060208284031215611ba557600080fd5b6000611bb384828501611b55565b91505092915050565b60008060408385031215611bcf57600080fd5b6000611bdd85828601611b55565b925050602083013567ffffffffffffffff811115611bfa57600080fd5b611c0685828601611b2b565b9150509250929050565b600080600060608486031215611c2557600080fd5b6000611c3386828701611b55565b935050602084013567ffffffffffffffff811115611c5057600080fd5b611c5c86828701611b2b565b925050604084013567ffffffffffffffff811115611c7957600080fd5b611c8586828701611b2b565b9150509250925092565b6000611c9b8383611ca7565b60208301905092915050565b611cb081612494565b82525050565b611cbf81612494565b82525050565b611cd6611cd182612494565b612597565b82525050565b6000611ce7826123a9565b611cf181856123cc565b9350611cfc83612399565b8060005b83811015611d2d578151611d148882611c8f565b9750611d1f836123bf565b925050600181019050611d00565b5085935050505092915050565b611d43816124a6565b82525050565b611d52816124a6565b82525050565b6000611d63826123b4565b611d6d81856123dd565b9350611d7d8185602086016124e9565b611d86816126b2565b840191505092915050565b6000611d9c826123b4565b611da681856123ee565b9350611db68185602086016124e9565b611dbf816126b2565b840191505092915050565b6000611dd5826123b4565b611ddf81856123ff565b9350611def8185602086016124e9565b80840191505092915050565b6000611e086012836123ee565b91507f496e636f72726563742070617373776f726400000000000000000000000000006000830152602082019050919050565b6000611e48601e836123ee565b91507f4d7573742073656e6420312045544820746f206a6f696e206120726f6f6d00006000830152602082019050919050565b6000611e88600c836123ee565b91507f526f6f6d2069732066756c6c00000000000000000000000000000000000000006000830152602082019050919050565b6000611ec86018836123ee565b91507f596f7520617265206e6f7420696e207468697320726f6f6d00000000000000006000830152602082019050919050565b6000611f08602b836123ee565b91507f4f6e6c792061207265676973746572656420706c617965722063616e20726f6c60008301527f6c2074686520646963652e0000000000000000000000000000000000000000006020830152604082019050919050565b6000611f6e6020836123ee565b91507f4d7573742073656e6420312045544820746f20637265617465206120726f6f6d6000830152602082019050919050565b6000611fae601d836123ee565b91507f496e73756666696369656e7420636f6e74726163742062616c616e63650000006000830152602082019050919050565b600060c083016000830151611ff96000860182612071565b50602083015161200c6020860182611ca7565b50604083015161201f6040860182612071565b50606083015184820360608601526120378282611d58565b915050608083015184820360808601526120518282611cdc565b91505060a083015161206660a0860182611d3a565b508091505092915050565b61207a816124d0565b82525050565b612089816124d0565b82525050565b6120a061209b826124d0565b6125bb565b82525050565b60006120b28284611dca565b915081905092915050565b60006120c9828661208f565b6020820191506120d98285611cc5565b6014820191506120e9828461208f565b602082019150819050949350505050565b600060408201905061210f6000830185611cb6565b61211c6020830184612080565b9392505050565b6000602082019050818103600083015261213c81611dfb565b9050919050565b6000602082019050818103600083015261215c81611e3b565b9050919050565b6000602082019050818103600083015261217c81611e7b565b9050919050565b6000602082019050818103600083015261219c81611ebb565b9050919050565b600060208201905081810360008301526121bc81611efb565b9050919050565b600060208201905081810360008301526121dc81611f61565b9050919050565b600060208201905081810360008301526121fc81611fa1565b9050919050565b6000602082019050818103600083015261221d8184611fe1565b905092915050565b600060208201905061223a6000830184612080565b92915050565b60006040820190506122556000830185612080565b6122626020830184611cb6565b9392505050565b600060808201905061227e6000830187612080565b61228b6020830186611cb6565b6122986040830185612080565b81810360608301526122aa8184611d91565b905095945050505050565b600060a0820190506122ca6000830188612080565b6122d76020830187611cb6565b6122e46040830186612080565b81810360608301526122f68185611d91565b90506123056080830184611d49565b9695505050505050565b60006040820190506123246000830185612080565b6123316020830184612080565b9392505050565b6000604051905081810181811067ffffffffffffffff8211171561235f5761235e612683565b5b8060405250919050565b600067ffffffffffffffff82111561238457612383612683565b5b601f19601f8301169050602081019050919050565b6000819050602082019050919050565b600081519050919050565b600081519050919050565b6000602082019050919050565b600082825260208201905092915050565b600082825260208201905092915050565b600082825260208201905092915050565b600081905092915050565b6000612415826124d0565b9150612420836124d0565b9250827fffffffffffffffffffffffffffffffffffffffffffffffffffffffffffffffff03821115612455576124546125f6565b5b828201905092915050565b600061246b826124d0565b9150612476836124d0565b925082821015612489576124886125f6565b5b828203905092915050565b600061249f826124b0565b9050919050565b6000819050919050565b600073ffffffffffffffffffffffffffffffffffffffff82169050919050565b6000819050919050565b82818337600083830152505050565b60005b838110156125075780820151818401526020810190506124ec565b83811115612516576000848401525b50505050565b6000600282049050600182168061253457607f821691505b6020821081141561254857612547612654565b5b50919050565b6000612559826124d0565b91507fffffffffffffffffffffffffffffffffffffffffffffffffffffffffffffffff82141561258c5761258b6125f6565b5b600182019050919050565b60006125a2826125a9565b9050919050565b60006125b4826126c3565b9050919050565b6000819050919050565b60006125d0826124d0565b91506125db836124d0565b9250826125eb576125ea612625565b5b828206905092915050565b7f4e487b7100000000000000000000000000000000000000000000000000000000600052601160045260246000fd5b7f4e487b7100000000000000000000000000000000000000000000000000000000600052601260045260246000fd5b7f4e487b7100000000000000000000000000000000000000000000000000000000600052602260045260246000fd5b7f4e487b7100000000000000000000000000000000000000000000000000000000600052604160045260246000fd5b6000601f19601f8301169050919050565b60008160601b9050919050565b6126d981612494565b81146126e457600080fd5b50565b6126f0816124d0565b81146126fb57600080fd5b5056fea264697066735822122094d2f8653cd61487f04ce4cbee439a47a581589c540c50bb8aaf96f9d2ff52be64736f6c63430008000033",
  "immutableReferences": {},
  "source": "// SPDX-License-Identifier: MIT\npragma solidity ^0.8.0;\n\ncontract MonopolyGame {\n    // GameRoom\n    // \n    struct Room {\n        uint id; // ID\n        address creator; // \n        uint maxPlayers; // \n        string gameMode; // \n        address[] players; // \n        bytes32 passwordHash; //  bytes32 \n    }\n\n    mapping(address => uint) public addr_to_room_id;  // addressidmapping\n\n    mapping(uint => Room) public rooms; // ID\n    uint public nextRoomId = 1; // ID\n\n    // \n    event RoomCreated(uint roomId, address creator, uint maxPlayers, string gameMode);\n    // \n    event PlayerJoined(uint roomId, address player);\n    // \n    event PlayerLeft(uint roomId, address player);\n\n    // \n    function createRoom(uint maxPlayers, string memory gameMode, string memory password) public payable returns (uint){\n        // 1 ETH\n        require(msg.value == 1 ether, \"Must send 1 ETH to create a room\");\n\n        rooms[nextRoomId] = Room({\n            id: nextRoomId, // ID\n            creator: msg.sender, // \n            maxPlayers: maxPlayers, // \n            gameMode: gameMode, // \n            passwordHash: keccak256(abi.encodePacked(password)), //  bytes32 \n            players: new address[](0)   // \n        }); \n\n        addr_to_room_id[msg.sender] = nextRoomId;\n        \n        emit RoomCreated(nextRoomId, msg.sender, maxPlayers, gameMode); // \n        nextRoomId++; // ID\n        return nextRoomId - 1; // ID\n    }\n\n    // \n    function joinRoom(uint roomId, string memory password) public payable {\n        require(msg.value == 1 ether, \"Must send 1 ETH to join a room\");\n        \n        Room storage room = rooms[roomId];\n        require(room.players.length < room.maxPlayers, \"Room is full\");\n\n        // \n        require(room.passwordHash == keccak256(abi.encodePacked(password)), \"Incorrect password\");\n\n        room.players.push(msg.sender);\n        emit PlayerJoined(roomId, msg.sender);\n    }\n\n    // \n    function leaveRoom(uint roomId) public {\n        Room storage room = rooms[roomId];\n        require(room.creator == msg.sender || isPlayerInRoom(roomId, msg.sender), \"You are not in this room\");\n\n        // \n        if (room.creator == msg.sender) {\n            for (uint i = 0; i < room.players.length; i++) {\n                delete addr_to_room_id[room.players[i]];\n            }\n            delete rooms[roomId];\n        } else {\n            // \n            for (uint i = 0; i < room.players.length; i++) {\n                if (room.players[i] == msg.sender) {\n                    room.players[i] = room.players[room.players.length - 1];\n                    room.players.pop();\n                    break;\n                }\n            }\n            delete addr_to_room_id[msg.sender];\n        }\n        emit PlayerLeft(roomId, msg.sender);\n    }\n    \n    // \n    function isPlayerInRoom(uint roomId, address player) internal view returns (bool) {\n        // Room storage room = rooms[roomId];\n        // for (uint i = 0; i < room.players.length; i++) {\n        //     if (room.players[i] == player) {\n        //         return true;\n        //     }\n        // }\n        // return false;\n        if (addr_to_room_id[player] == roomId){\n            return false;\n        }else{\n            return true;\n        }\n    }\n\n    // \n    function checkPlayerNumInRoom(uint roomId) public view returns(uint, uint) {\n        Room storage room = rooms[roomId];\n        return (room.maxPlayers, room.players.length);\n    }\n\n    // \n    function getRoom(uint roomId) public view returns (Room memory) {\n        return rooms[roomId];   // start from 1\n    }\n\n    // Game\n    mapping(address => uint256) public playerPositions;\n    // address[4] public players;  // \n    uint256 private nonce = 0;\n\n    // \n    event DiceRolled(address indexed player, uint256 dice1, uint256 dice2);\n    event PlayerMoved(address player, uint256 newPosition);\n\n    // // \n    // function initializePlayers(address[4] memory _players) public {\n    //     for (uint i = 0; i < _players.length; i++) {\n    //         players[i] = _players[i];\n    //         playerPositions[_players[i]] = 0; // 0\n    //     }\n    // }\n\n    // 16\n    function rollDice() public returns (uint256, uint256) {\n        require(isPlayer(msg.sender), \"Only a registered player can roll the dice.\");\n        uint256 dice1 = uint256(keccak256(abi.encodePacked(block.timestamp, msg.sender, nonce))) % 6 + 1;\n        uint256 dice2 = uint256(keccak256(abi.encodePacked(block.timestamp, msg.sender, nonce + 1))) % 6 + 1;\n        nonce += 2;\n        emit DiceRolled(msg.sender, dice1, dice2); // \n        return (dice1, dice2);\n    }\n\n    // \n    function isPlayer(address _address) private view returns (bool) {\n        if (addr_to_room_id[_address] != 0){\n            return true;\n        }else{\n            return false;\n        }\n    }\n\n    // \n    function movePlayer() public {\n        (uint256 dice1, uint256 dice2) = rollDice();\n        uint256 diceResult = dice1 + dice2;\n        playerPositions[msg.sender] = (playerPositions[msg.sender] + diceResult) % 40; // 40\n        emit PlayerMoved(msg.sender, playerPositions[msg.sender]);\n    }\n\n    // ETH\n    function refund(uint roomId) public {\n        Room storage room = rooms[roomId];\n        require(room.creator == msg.sender || isPlayerInRoom(roomId, msg.sender), \"You are not in this room\");\n        \n        uint refundAmount = 1 ether;\n        \n        // \n        require(address(this).balance >= refundAmount, \"Insufficient contract balance\");\n\n        // ETH\n        if (room.creator == msg.sender) {\n            for (uint i = 0; i < room.players.length; i++) {\n                address player = room.players[i];\n                payable(player).transfer(refundAmount);\n                delete addr_to_room_id[player];\n            }\n            delete rooms[roomId];\n            payable(room.creator).transfer(refundAmount);\n        } else {\n            // ETH\n            for (uint i = 0; i < room.players.length; i++) {\n                if (room.players[i] == msg.sender) {\n                    room.players[i] = room.players[room.players.length - 1];\n                    room.players.pop();\n                    break;\n                }\n            }\n            delete addr_to_room_id[msg.sender];\n            payable(msg.sender).transfer(refundAmount);\n        }\n\n        emit PlayerLeft(roomId, msg.sender);\n}\n\n}\n",
  "sourcePath": "/Users/keyuhan/Desktop/monopoly/contracts/MonopolyGame.sol",
  "compiler": {
    "name": "solc",
    "version": "0.8.0+commit.c7dfd78e.Emscripten.clang"
  },
  "schemaVersion": "3.4.16",
  "updatedAt": "2024-10-28T15:55:29.604Z",
  "networkType": "ethereum",
  "devdoc": {
    "kind": "dev",
    "methods": {},
    "version": 1
  },
  "userdoc": {
    "kind": "user",
    "methods": {},
    "version": 1
  }
}