{
  "contractName": "Token",
  "abi": [
    {
      "inputs": [],
      "stateMutability": "nonpayable",
      "type": "constructor"
    },
    {
      "anonymous": false,
      "inputs": [
        {
          "indexed": true,
          "internalType": "address",
          "name": "account",
          "type": "address"
        },
        {
          "indexed": true,
          "internalType": "address",
          "name": "operator",
          "type": "address"
        },
        {
          "indexed": false,
          "internalType": "bool",
          "name": "approved",
          "type": "bool"
        }
      ],
      "name": "ApprovalForAll",
      "type": "event"
    },
    {
      "anonymous": false,
      "inputs": [
        {
          "indexed": true,
          "internalType": "address",
          "name": "previousOwner",
          "type": "address"
        },
        {
          "indexed": true,
          "internalType": "address",
          "name": "newOwner",
          "type": "address"
        }
      ],
      "name": "OwnershipTransferred",
      "type": "event"
    },
    {
      "anonymous": false,
      "inputs": [
        {
          "indexed": true,
          "internalType": "address",
          "name": "operator",
          "type": "address"
        },
        {
          "indexed": true,
          "internalType": "address",
          "name": "from",
          "type": "address"
        },
        {
          "indexed": true,
          "internalType": "address",
          "name": "to",
          "type": "address"
        },
        {
          "indexed": false,
          "internalType": "uint256[]",
          "name": "ids",
          "type": "uint256[]"
        },
        {
          "indexed": false,
          "internalType": "uint256[]",
          "name": "values",
          "type": "uint256[]"
        }
      ],
      "name": "TransferBatch",
      "type": "event"
    },
    {
      "anonymous": false,
      "inputs": [
        {
          "indexed": true,
          "internalType": "address",
          "name": "operator",
          "type": "address"
        },
        {
          "indexed": true,
          "internalType": "address",
          "name": "from",
          "type": "address"
        },
        {
          "indexed": true,
          "internalType": "address",
          "name": "to",
          "type": "address"
        },
        {
          "indexed": false,
          "internalType": "uint256",
          "name": "id",
          "type": "uint256"
        },
        {
          "indexed": false,
          "internalType": "uint256",
          "name": "value",
          "type": "uint256"
        }
      ],
      "name": "TransferSingle",
      "type": "event"
    },
    {
      "anonymous": false,
      "inputs": [
        {
          "indexed": false,
          "internalType": "string",
          "name": "value",
          "type": "string"
        },
        {
          "indexed": true,
          "internalType": "uint256",
          "name": "id",
          "type": "uint256"
        }
      ],
      "name": "URI",
      "type": "event"
    },
    {
      "inputs": [],
      "name": "LAND",
      "outputs": [
        {
          "internalType": "uint256",
          "name": "",
          "type": "uint256"
        }
      ],
      "stateMutability": "view",
      "type": "function",
      "constant": true
    },
    {
      "inputs": [],
      "name": "TOKEN_COIN",
      "outputs": [
        {
          "internalType": "uint256",
          "name": "",
          "type": "uint256"
        }
      ],
      "stateMutability": "view",
      "type": "function",
      "constant": true
    },
    {
      "inputs": [
        {
          "internalType": "address",
          "name": "account",
          "type": "address"
        },
        {
          "internalType": "uint256",
          "name": "id",
          "type": "uint256"
        }
      ],
      "name": "balanceOf",
      "outputs": [
        {
          "internalType": "uint256",
          "name": "",
          "type": "uint256"
        }
      ],
      "stateMutability": "view",
      "type": "function",
      "constant": true
    },
    {
      "inputs": [
        {
          "internalType": "address[]",
          "name": "accounts",
          "type": "address[]"
        },
        {
          "internalType": "uint256[]",
          "name": "ids",
          "type": "uint256[]"
        }
      ],
      "name": "balanceOfBatch",
      "outputs": [
        {
          "internalType": "uint256[]",
          "name": "",
          "type": "uint256[]"
        }
      ],
      "stateMutability": "view",
      "type": "function",
      "constant": true
    },
    {
      "inputs": [
        {
          "internalType": "address",
          "name": "account",
          "type": "address"
        },
        {
          "internalType": "address",
          "name": "operator",
          "type": "address"
        }
      ],
      "name": "isApprovedForAll",
      "outputs": [
        {
          "internalType": "bool",
          "name": "",
          "type": "bool"
        }
      ],
      "stateMutability": "view",
      "type": "function",
      "constant": true
    },
    {
      "inputs": [],
      "name": "owner",
      "outputs": [
        {
          "internalType": "address",
          "name": "",
          "type": "address"
        }
      ],
      "stateMutability": "view",
      "type": "function",
      "constant": true
    },
    {
      "inputs": [],
      "name": "renounceOwnership",
      "outputs": [],
      "stateMutability": "nonpayable",
      "type": "function"
    },
    {
      "inputs": [
        {
          "internalType": "address",
          "name": "from",
          "type": "address"
        },
        {
          "internalType": "address",
          "name": "to",
          "type": "address"
        },
        {
          "internalType": "uint256[]",
          "name": "ids",
          "type": "uint256[]"
        },
        {
          "internalType": "uint256[]",
          "name": "amounts",
          "type": "uint256[]"
        },
        {
          "internalType": "bytes",
          "name": "data",
          "type": "bytes"
        }
      ],
      "name": "safeBatchTransferFrom",
      "outputs": [],
      "stateMutability": "nonpayable",
      "type": "function"
    },
    {
      "inputs": [
        {
          "internalType": "address",
          "name": "from",
          "type": "address"
        },
        {
          "internalType": "address",
          "name": "to",
          "type": "address"
        },
        {
          "internalType": "uint256",
          "name": "id",
          "type": "uint256"
        },
        {
          "internalType": "uint256",
          "name": "amount",
          "type": "uint256"
        },
        {
          "internalType": "bytes",
          "name": "data",
          "type": "bytes"
        }
      ],
      "name": "safeTransferFrom",
      "outputs": [],
      "stateMutability": "nonpayable",
      "type": "function"
    },
    {
      "inputs": [
        {
          "internalType": "address",
          "name": "operator",
          "type": "address"
        },
        {
          "internalType": "bool",
          "name": "approved",
          "type": "bool"
        }
      ],
      "name": "setApprovalForAll",
      "outputs": [],
      "stateMutability": "nonpayable",
      "type": "function"
    },
    {
      "inputs": [
        {
          "internalType": "bytes4",
          "name": "interfaceId",
          "type": "bytes4"
        }
      ],
      "name": "supportsInterface",
      "outputs": [
        {
          "internalType": "bool",
          "name": "",
          "type": "bool"
        }
      ],
      "stateMutability": "view",
      "type": "function",
      "constant": true
    },
    {
      "inputs": [
        {
          "internalType": "address",
          "name": "newOwner",
          "type": "address"
        }
      ],
      "name": "transferOwnership",
      "outputs": [],
      "stateMutability": "nonpayable",
      "type": "function"
    },
    {
      "inputs": [
        {
          "internalType": "uint256",
          "name": "",
          "type": "uint256"
        }
      ],
      "name": "uri",
      "outputs": [
        {
          "internalType": "string",
          "name": "",
          "type": "string"
        }
      ],
      "stateMutability": "view",
      "type": "function",
      "constant": true
    },
    {
      "inputs": [
        {
          "internalType": "string",
          "name": "newuri",
          "type": "string"
        }
      ],
      "name": "setURI",
      "outputs": [],
      "stateMutability": "nonpayable",
      "type": "function"
    },
    {
      "inputs": [
        {
          "internalType": "address",
          "name": "account",
          "type": "address"
        },
        {
          "internalType": "uint256",
          "name": "id",
          "type": "uint256"
        },
        {
          "internalType": "uint256",
          "name": "amount",
          "type": "uint256"
        },
        {
          "internalType": "bytes",
          "name": "data",
          "type": "bytes"
        }
      ],
      "name": "mint",
      "outputs": [],
      "stateMutability": "nonpayable",
      "type": "function"
    },
    {
      "inputs": [
        {
          "internalType": "address",
          "name": "to",
          "type": "address"
        },
        {
          "internalType": "uint256[]",
          "name": "ids",
          "type": "uint256[]"
        },
        {
          "internalType": "uint256[]",
          "name": "amounts",
          "type": "uint256[]"
        },
        {
          "internalType": "bytes",
          "name": "data",
          "type": "bytes"
        }
      ],
      "name": "mintBatch",
      "outputs": [],
      "stateMutability": "nonpayable",
      "type": "function"
    }
  ],
  "bytecode": "0x60806040523480156200001157600080fd5b506040518060200160405280600081525062000033816200005a60201b60201c565b5062000054620000486200007660201b60201c565b6200007e60201b60201c565b62000259565b80600290805190602001906200007292919062000144565b5050565b600033905090565b6000600360009054906101000a900473ffffffffffffffffffffffffffffffffffffffff16905081600360006101000a81548173ffffffffffffffffffffffffffffffffffffffff021916908373ffffffffffffffffffffffffffffffffffffffff1602179055508173ffffffffffffffffffffffffffffffffffffffff168173ffffffffffffffffffffffffffffffffffffffff167f8be0079c531659141344cd1fd0a4f28419497f9722a3daafe3b4186f6b6457e060405160405180910390a35050565b8280546200015290620001f4565b90600052602060002090601f016020900481019282620001765760008555620001c2565b82601f106200019157805160ff1916838001178555620001c2565b82800160010185558215620001c2579182015b82811115620001c1578251825591602001919060010190620001a4565b5b509050620001d19190620001d5565b5090565b5b80821115620001f0576000816000905550600101620001d6565b5090565b600060028204905060018216806200020d57607f821691505b602082108114156200022457620002236200022a565b5b50919050565b7f4e487b7100000000000000000000000000000000000000000000000000000000600052602260045260246000fd5b61319380620002696000396000f3fe608060405234801561001057600080fd5b50600436106100ff5760003560e01c8063731133e911610097578063ce89205b11610066578063ce89205b14610296578063e985e9c5146102b4578063f242432a146102e4578063f2fde38b14610300576100ff565b8063731133e9146102225780638da5cb5b1461023e578063a22cb4651461025c578063a3bfcb6314610278576100ff565b80631f7fdffa116100d35780631f7fdffa146101b05780632eb2c2d6146101cc5780634e1273f4146101e8578063715018a614610218576100ff565b8062fdd58e1461010457806301ffc9a71461013457806302fe5305146101645780630e89341c14610180575b600080fd5b61011e600480360381019061011991906121e3565b61031c565b60405161012b9190612c7b565b60405180910390f35b61014e60048036038101906101499190612306565b6103e5565b60405161015b9190612abe565b60405180910390f35b61017e60048036038101906101799190612358565b6104c7565b005b61019a60048036038101906101959190612399565b6104db565b6040516101a79190612ad9565b60405180910390f35b6101ca60048036038101906101c591906120fc565b61056f565b005b6101e660048036038101906101e19190611fae565b610589565b005b61020260048036038101906101fd919061229a565b61062a565b60405161020f9190612a65565b60405180910390f35b6102206107db565b005b61023c6004803603810190610237919061221f565b6107ef565b005b610246610818565b6040516102539190612988565b60405180910390f35b610276600480360381019061027191906121a7565b610842565b005b610280610858565b60405161028d9190612c7b565b60405180910390f35b61029e61085d565b6040516102ab9190612c7b565b60405180910390f35b6102ce60048036038101906102c99190611f72565b610862565b6040516102db9190612abe565b60405180910390f35b6102fe60048036038101906102f9919061206d565b6108f6565b005b61031a60048036038101906103159190611f49565b610997565b005b60008073ffffffffffffffffffffffffffffffffffffffff168373ffffffffffffffffffffffffffffffffffffffff16141561038d576040517f08c379a000000000000000000000000000000000000000000000000000000000815260040161038490612b3b565b60405180910390fd5b60008083815260200190815260200160002060008473ffffffffffffffffffffffffffffffffffffffff1673ffffffffffffffffffffffffffffffffffffffff16815260200190815260200160002054905092915050565b60007fd9b67a26000000000000000000000000000000000000000000000000000000007bffffffffffffffffffffffffffffffffffffffffffffffffffffffff1916827bffffffffffffffffffffffffffffffffffffffffffffffffffffffff191614806104b057507f0e89341c000000000000000000000000000000000000000000000000000000007bffffffffffffffffffffffffffffffffffffffffffffffffffffffff1916827bffffffffffffffffffffffffffffffffffffffffffffffffffffffff1916145b806104c057506104bf82610a1b565b5b9050919050565b6104cf610a85565b6104d881610b03565b50565b6060600280546104ea90612f25565b80601f016020809104026020016040519081016040528092919081815260200182805461051690612f25565b80156105635780601f1061053857610100808354040283529160200191610563565b820191906000526020600020905b81548152906001019060200180831161054657829003601f168201915b50505050509050919050565b610577610a85565b61058384848484610b1d565b50505050565b610591610d96565b73ffffffffffffffffffffffffffffffffffffffff168573ffffffffffffffffffffffffffffffffffffffff1614806105d757506105d6856105d1610d96565b610862565b5b610616576040517f08c379a000000000000000000000000000000000000000000000000000000000815260040161060d90612b5b565b60405180910390fd5b6106238585858585610d9e565b5050505050565b60608151835114610670576040517f08c379a000000000000000000000000000000000000000000000000000000000815260040161066790612bfb565b60405180910390fd5b6000835167ffffffffffffffff8111156106b3577f4e487b7100000000000000000000000000000000000000000000000000000000600052604160045260246000fd5b6040519080825280602002602001820160405280156106e15781602001602082028036833780820191505090505b50905060005b84518110156107d05761077a85828151811061072c577f4e487b7100000000000000000000000000000000000000000000000000000000600052603260045260246000fd5b602002602001015185838151811061076d577f4e487b7100000000000000000000000000000000000000000000000000000000600052603260045260246000fd5b602002602001015161031c565b8282815181106107b3577f4e487b7100000000000000000000000000000000000000000000000000000000600052603260045260246000fd5b602002602001018181525050806107c990612f57565b90506106e7565b508091505092915050565b6107e3610a85565b6107ed600061110c565b565b6107f7610a85565b610812848484604051806020016040528060008152506111d2565b50505050565b6000600360009054906101000a900473ffffffffffffffffffffffffffffffffffffffff16905090565b61085461084d610d96565b8383611383565b5050565b600081565b600181565b6000600160008473ffffffffffffffffffffffffffffffffffffffff1673ffffffffffffffffffffffffffffffffffffffff16815260200190815260200160002060008373ffffffffffffffffffffffffffffffffffffffff1673ffffffffffffffffffffffffffffffffffffffff16815260200190815260200160002060009054906101000a900460ff16905092915050565b6108fe610d96565b73ffffffffffffffffffffffffffffffffffffffff168573ffffffffffffffffffffffffffffffffffffffff16148061094457506109438561093e610d96565b610862565b5b610983576040517f08c379a000000000000000000000000000000000000000000000000000000000815260040161097a90612b5b565b60405180910390fd5b61099085858585856114f0565b5050505050565b61099f610a85565b600073ffffffffffffffffffffffffffffffffffffffff168173ffffffffffffffffffffffffffffffffffffffff161415610a0f576040517f08c379a0000000000000000000000000000000000000000000000000000000008152600401610a0690612b1b565b60405180910390fd5b610a188161110c565b50565b60007f01ffc9a7000000000000000000000000000000000000000000000000000000007bffffffffffffffffffffffffffffffffffffffffffffffffffffffff1916827bffffffffffffffffffffffffffffffffffffffffffffffffffffffff1916149050919050565b610a8d610d96565b73ffffffffffffffffffffffffffffffffffffffff16610aab610818565b73ffffffffffffffffffffffffffffffffffffffff1614610b01576040517f08c379a0000000000000000000000000000000000000000000000000000000008152600401610af890612bbb565b60405180910390fd5b565b8060029080519060200190610b19929190611c41565b5050565b600073ffffffffffffffffffffffffffffffffffffffff168473ffffffffffffffffffffffffffffffffffffffff161415610b8d576040517f08c379a0000000000000000000000000000000000000000000000000000000008152600401610b8490612c3b565b60405180910390fd5b8151835114610bd1576040517f08c379a0000000000000000000000000000000000000000000000000000000008152600401610bc890612c1b565b60405180910390fd5b6000610bdb610d96565b9050610bec8160008787878761178c565b60005b8451811015610cf157838181518110610c31577f4e487b7100000000000000000000000000000000000000000000000000000000600052603260045260246000fd5b6020026020010151600080878481518110610c75577f4e487b7100000000000000000000000000000000000000000000000000000000600052603260045260246000fd5b6020026020010151815260200190815260200160002060008873ffffffffffffffffffffffffffffffffffffffff1673ffffffffffffffffffffffffffffffffffffffff1681526020019081526020016000206000828254610cd79190612e19565b925050819055508080610ce990612f57565b915050610bef565b508473ffffffffffffffffffffffffffffffffffffffff16600073ffffffffffffffffffffffffffffffffffffffff168273ffffffffffffffffffffffffffffffffffffffff167f4a39dc06d4c0dbc64b70af90fd698a233a518aa5d07e595d983b8c0526c8f7fb8787604051610d69929190612a87565b60405180910390a4610d8081600087878787611794565b610d8f8160008787878761179c565b5050505050565b600033905090565b8151835114610de2576040517f08c379a0000000000000000000000000000000000000000000000000000000008152600401610dd990612c1b565b60405180910390fd5b600073ffffffffffffffffffffffffffffffffffffffff168473ffffffffffffffffffffffffffffffffffffffff161415610e52576040517f08c379a0000000000000000000000000000000000000000000000000000000008152600401610e4990612b7b565b60405180910390fd5b6000610e5c610d96565b9050610e6c81878787878761178c565b60005b8451811015611069576000858281518110610eb3577f4e487b7100000000000000000000000000000000000000000000000000000000600052603260045260246000fd5b602002602001015190506000858381518110610ef8577f4e487b7100000000000000000000000000000000000000000000000000000000600052603260045260246000fd5b60200260200101519050600080600084815260200190815260200160002060008b73ffffffffffffffffffffffffffffffffffffffff1673ffffffffffffffffffffffffffffffffffffffff16815260200190815260200160002054905081811015610f99576040517f08c379a0000000000000000000000000000000000000000000000000000000008152600401610f9090612b9b565b60405180910390fd5b81810360008085815260200190815260200160002060008c73ffffffffffffffffffffffffffffffffffffffff1673ffffffffffffffffffffffffffffffffffffffff168152602001908152602001600020819055508160008085815260200190815260200160002060008b73ffffffffffffffffffffffffffffffffffffffff1673ffffffffffffffffffffffffffffffffffffffff168152602001908152602001600020600082825461104e9190612e19565b925050819055505050508061106290612f57565b9050610e6f565b508473ffffffffffffffffffffffffffffffffffffffff168673ffffffffffffffffffffffffffffffffffffffff168273ffffffffffffffffffffffffffffffffffffffff167f4a39dc06d4c0dbc64b70af90fd698a233a518aa5d07e595d983b8c0526c8f7fb87876040516110e0929190612a87565b60405180910390a46110f6818787878787611794565b61110481878787878761179c565b505050505050565b6000600360009054906101000a900473ffffffffffffffffffffffffffffffffffffffff16905081600360006101000a81548173ffffffffffffffffffffffffffffffffffffffff021916908373ffffffffffffffffffffffffffffffffffffffff1602179055508173ffffffffffffffffffffffffffffffffffffffff168173ffffffffffffffffffffffffffffffffffffffff167f8be0079c531659141344cd1fd0a4f28419497f9722a3daafe3b4186f6b6457e060405160405180910390a35050565b600073ffffffffffffffffffffffffffffffffffffffff168473ffffffffffffffffffffffffffffffffffffffff161415611242576040517f08c379a000000000000000000000000000000000000000000000000000000000815260040161123990612c3b565b60405180910390fd5b600061124c610d96565b905060006112598561196c565b905060006112668561196c565b90506112778360008985858961178c565b8460008088815260200190815260200160002060008973ffffffffffffffffffffffffffffffffffffffff1673ffffffffffffffffffffffffffffffffffffffff16815260200190815260200160002060008282546112d69190612e19565b925050819055508673ffffffffffffffffffffffffffffffffffffffff16600073ffffffffffffffffffffffffffffffffffffffff168473ffffffffffffffffffffffffffffffffffffffff167fc3d58168c5ae7397731d063d5bbf3d657854427343f4c083240f7aacaa2d0f628989604051611354929190612c96565b60405180910390a461136b83600089858589611794565b61137a83600089898989611a32565b50505050505050565b8173ffffffffffffffffffffffffffffffffffffffff168373ffffffffffffffffffffffffffffffffffffffff1614156113f2576040517f08c379a00000000000000000000000000000000000000000000000000000000081526004016113e990612bdb565b60405180910390fd5b80600160008573ffffffffffffffffffffffffffffffffffffffff1673ffffffffffffffffffffffffffffffffffffffff16815260200190815260200160002060008473ffffffffffffffffffffffffffffffffffffffff1673ffffffffffffffffffffffffffffffffffffffff16815260200190815260200160002060006101000a81548160ff0219169083151502179055508173ffffffffffffffffffffffffffffffffffffffff168373ffffffffffffffffffffffffffffffffffffffff167f17307eab39ab6107e8899845ad3d59bd9653f200f220920489ca2b5937696c31836040516114e39190612abe565b60405180910390a3505050565b600073ffffffffffffffffffffffffffffffffffffffff168473ffffffffffffffffffffffffffffffffffffffff161415611560576040517f08c379a000000000000000000000000000000000000000000000000000000000815260040161155790612b7b565b60405180910390fd5b600061156a610d96565b905060006115778561196c565b905060006115848561196c565b905061159483898985858961178c565b600080600088815260200190815260200160002060008a73ffffffffffffffffffffffffffffffffffffffff1673ffffffffffffffffffffffffffffffffffffffff1681526020019081526020016000205490508581101561162b576040517f08c379a000000000000000000000000000000000000000000000000000000000815260040161162290612b9b565b60405180910390fd5b85810360008089815260200190815260200160002060008b73ffffffffffffffffffffffffffffffffffffffff1673ffffffffffffffffffffffffffffffffffffffff168152602001908152602001600020819055508560008089815260200190815260200160002060008a73ffffffffffffffffffffffffffffffffffffffff1673ffffffffffffffffffffffffffffffffffffffff16815260200190815260200160002060008282546116e09190612e19565b925050819055508773ffffffffffffffffffffffffffffffffffffffff168973ffffffffffffffffffffffffffffffffffffffff168573ffffffffffffffffffffffffffffffffffffffff167fc3d58168c5ae7397731d063d5bbf3d657854427343f4c083240f7aacaa2d0f628a8a60405161175d929190612c96565b60405180910390a4611773848a8a86868a611794565b611781848a8a8a8a8a611a32565b505050505050505050565b505050505050565b505050505050565b6117bb8473ffffffffffffffffffffffffffffffffffffffff16611c02565b15611964578373ffffffffffffffffffffffffffffffffffffffff1663bc197c8187878686866040518663ffffffff1660e01b81526004016118019594939291906129a3565b602060405180830381600087803b15801561181b57600080fd5b505af192505050801561184c57506040513d601f19601f82011682018060405250810190611849919061232f565b60015b6118db5761185861304b565b8061186357506118a0565b806040517f08c379a00000000000000000000000000000000000000000000000000000000081526004016118979190612ad9565b60405180910390fd5b6040517f08c379a00000000000000000000000000000000000000000000000000000000081526004016118d290612c5b565b60405180910390fd5b63bc197c8160e01b7bffffffffffffffffffffffffffffffffffffffffffffffffffffffff1916817bffffffffffffffffffffffffffffffffffffffffffffffffffffffff191614611962576040517f08c379a000000000000000000000000000000000000000000000000000000000815260040161195990612afb565b60405180910390fd5b505b505050505050565b60606000600167ffffffffffffffff8111156119b1577f4e487b7100000000000000000000000000000000000000000000000000000000600052604160045260246000fd5b6040519080825280602002602001820160405280156119df5781602001602082028036833780820191505090505b5090508281600081518110611a1d577f4e487b7100000000000000000000000000000000000000000000000000000000600052603260045260246000fd5b60200260200101818152505080915050919050565b611a518473ffffffffffffffffffffffffffffffffffffffff16611c02565b15611bfa578373ffffffffffffffffffffffffffffffffffffffff1663f23a6e6187878686866040518663ffffffff1660e01b8152600401611a97959493929190612a0b565b602060405180830381600087803b158015611ab157600080fd5b505af1925050508015611ae257506040513d601f19601f82011682018060405250810190611adf919061232f565b60015b611b7157611aee61304b565b80611af95750611b36565b806040517f08c379a0000000000000000000000000000000000000000000000000000000008152600401611b2d9190612ad9565b60405180910390fd5b6040517f08c379a0000000000000000000000000000000000000000000000000000000008152600401611b6890612c5b565b60405180910390fd5b63f23a6e6160e01b7bffffffffffffffffffffffffffffffffffffffffffffffffffffffff1916817bffffffffffffffffffffffffffffffffffffffffffffffffffffffff191614611bf8576040517f08c379a0000000000000000000000000000000000000000000000000000000008152600401611bef90612afb565b60405180910390fd5b505b505050505050565b6000808273ffffffffffffffffffffffffffffffffffffffff16803b806020016040519081016040528181526000908060200190933c51119050919050565b828054611c4d90612f25565b90600052602060002090601f016020900481019282611c6f5760008555611cb6565b82601f10611c8857805160ff1916838001178555611cb6565b82800160010185558215611cb6579182015b82811115611cb5578251825591602001919060010190611c9a565b5b509050611cc39190611cc7565b5090565b5b80821115611ce0576000816000905550600101611cc8565b5090565b6000611cf7611cf284612cf0565b612cbf565b90508083825260208201905082856020860282011115611d1657600080fd5b60005b85811015611d465781611d2c8882611e38565b845260208401935060208301925050600181019050611d19565b5050509392505050565b6000611d63611d5e84612d1c565b612cbf565b90508083825260208201905082856020860282011115611d8257600080fd5b60005b85811015611db25781611d988882611f34565b845260208401935060208301925050600181019050611d85565b5050509392505050565b6000611dcf611dca84612d48565b612cbf565b905082815260208101848484011115611de757600080fd5b611df2848285612ee3565b509392505050565b6000611e0d611e0884612d78565b612cbf565b905082815260208101848484011115611e2557600080fd5b611e30848285612ee3565b509392505050565b600081359050611e4781613101565b92915050565b600082601f830112611e5e57600080fd5b8135611e6e848260208601611ce4565b91505092915050565b600082601f830112611e8857600080fd5b8135611e98848260208601611d50565b91505092915050565b600081359050611eb081613118565b92915050565b600081359050611ec58161312f565b92915050565b600081519050611eda8161312f565b92915050565b600082601f830112611ef157600080fd5b8135611f01848260208601611dbc565b91505092915050565b600082601f830112611f1b57600080fd5b8135611f2b848260208601611dfa565b91505092915050565b600081359050611f4381613146565b92915050565b600060208284031215611f5b57600080fd5b6000611f6984828501611e38565b91505092915050565b60008060408385031215611f8557600080fd5b6000611f9385828601611e38565b9250506020611fa485828601611e38565b9150509250929050565b600080600080600060a08688031215611fc657600080fd5b6000611fd488828901611e38565b9550506020611fe588828901611e38565b945050604086013567ffffffffffffffff81111561200257600080fd5b61200e88828901611e77565b935050606086013567ffffffffffffffff81111561202b57600080fd5b61203788828901611e77565b925050608086013567ffffffffffffffff81111561205457600080fd5b61206088828901611ee0565b9150509295509295909350565b600080600080600060a0868803121561208557600080fd5b600061209388828901611e38565b95505060206120a488828901611e38565b94505060406120b588828901611f34565b93505060606120c688828901611f34565b925050608086013567ffffffffffffffff8111156120e357600080fd5b6120ef88828901611ee0565b9150509295509295909350565b6000806000806080858703121561211257600080fd5b600061212087828801611e38565b945050602085013567ffffffffffffffff81111561213d57600080fd5b61214987828801611e77565b935050604085013567ffffffffffffffff81111561216657600080fd5b61217287828801611e77565b925050606085013567ffffffffffffffff81111561218f57600080fd5b61219b87828801611ee0565b91505092959194509250565b600080604083850312156121ba57600080fd5b60006121c885828601611e38565b92505060206121d985828601611ea1565b9150509250929050565b600080604083850312156121f657600080fd5b600061220485828601611e38565b925050602061221585828601611f34565b9150509250929050565b6000806000806080858703121561223557600080fd5b600061224387828801611e38565b945050602061225487828801611f34565b935050604061226587828801611f34565b925050606085013567ffffffffffffffff81111561228257600080fd5b61228e87828801611ee0565b91505092959194509250565b600080604083850312156122ad57600080fd5b600083013567ffffffffffffffff8111156122c757600080fd5b6122d385828601611e4d565b925050602083013567ffffffffffffffff8111156122f057600080fd5b6122fc85828601611e77565b9150509250929050565b60006020828403121561231857600080fd5b600061232684828501611eb6565b91505092915050565b60006020828403121561234157600080fd5b600061234f84828501611ecb565b91505092915050565b60006020828403121561236a57600080fd5b600082013567ffffffffffffffff81111561238457600080fd5b61239084828501611f0a565b91505092915050565b6000602082840312156123ab57600080fd5b60006123b984828501611f34565b91505092915050565b60006123ce838361296a565b60208301905092915050565b6123e381612e6f565b82525050565b60006123f482612db8565b6123fe8185612de6565b935061240983612da8565b8060005b8381101561243a57815161242188826123c2565b975061242c83612dd9565b92505060018101905061240d565b5085935050505092915050565b61245081612e81565b82525050565b600061246182612dc3565b61246b8185612df7565b935061247b818560208601612ef2565b6124848161302d565b840191505092915050565b600061249a82612dce565b6124a48185612e08565b93506124b4818560208601612ef2565b6124bd8161302d565b840191505092915050565b60006124d5602883612e08565b91507f455243313135353a204552433131353552656365697665722072656a6563746560008301527f6420746f6b656e730000000000000000000000000000000000000000000000006020830152604082019050919050565b600061253b602683612e08565b91507f4f776e61626c653a206e6577206f776e657220697320746865207a65726f206160008301527f64647265737300000000000000000000000000000000000000000000000000006020830152604082019050919050565b60006125a1602a83612e08565b91507f455243313135353a2061646472657373207a65726f206973206e6f742061207660008301527f616c6964206f776e6572000000000000000000000000000000000000000000006020830152604082019050919050565b6000612607602e83612e08565b91507f455243313135353a2063616c6c6572206973206e6f7420746f6b656e206f776e60008301527f6572206f7220617070726f7665640000000000000000000000000000000000006020830152604082019050919050565b600061266d602583612e08565b91507f455243313135353a207472616e7366657220746f20746865207a65726f20616460008301527f64726573730000000000000000000000000000000000000000000000000000006020830152604082019050919050565b60006126d3602a83612e08565b91507f455243313135353a20696e73756666696369656e742062616c616e636520666f60008301527f72207472616e73666572000000000000000000000000000000000000000000006020830152604082019050919050565b6000612739602083612e08565b91507f4f776e61626c653a2063616c6c6572206973206e6f7420746865206f776e65726000830152602082019050919050565b6000612779602983612e08565b91507f455243313135353a2073657474696e6720617070726f76616c2073746174757360008301527f20666f722073656c6600000000000000000000000000000000000000000000006020830152604082019050919050565b60006127df602983612e08565b91507f455243313135353a206163636f756e747320616e6420696473206c656e67746860008301527f206d69736d6174636800000000000000000000000000000000000000000000006020830152604082019050919050565b6000612845602883612e08565b91507f455243313135353a2069647320616e6420616d6f756e7473206c656e6774682060008301527f6d69736d617463680000000000000000000000000000000000000000000000006020830152604082019050919050565b60006128ab602183612e08565b91507f455243313135353a206d696e7420746f20746865207a65726f2061646472657360008301527f73000000000000000000000000000000000000000000000000000000000000006020830152604082019050919050565b6000612911603483612e08565b91507f455243313135353a207472616e7366657220746f206e6f6e2d4552433131353560008301527f526563656976657220696d706c656d656e7465720000000000000000000000006020830152604082019050919050565b61297381612ed9565b82525050565b61298281612ed9565b82525050565b600060208201905061299d60008301846123da565b92915050565b600060a0820190506129b860008301886123da565b6129c560208301876123da565b81810360408301526129d781866123e9565b905081810360608301526129eb81856123e9565b905081810360808301526129ff8184612456565b90509695505050505050565b600060a082019050612a2060008301886123da565b612a2d60208301876123da565b612a3a6040830186612979565b612a476060830185612979565b8181036080830152612a598184612456565b90509695505050505050565b60006020820190508181036000830152612a7f81846123e9565b905092915050565b60006040820190508181036000830152612aa181856123e9565b90508181036020830152612ab581846123e9565b90509392505050565b6000602082019050612ad36000830184612447565b92915050565b60006020820190508181036000830152612af3818461248f565b905092915050565b60006020820190508181036000830152612b14816124c8565b9050919050565b60006020820190508181036000830152612b348161252e565b9050919050565b60006020820190508181036000830152612b5481612594565b9050919050565b60006020820190508181036000830152612b74816125fa565b9050919050565b60006020820190508181036000830152612b9481612660565b9050919050565b60006020820190508181036000830152612bb4816126c6565b9050919050565b60006020820190508181036000830152612bd48161272c565b9050919050565b60006020820190508181036000830152612bf48161276c565b9050919050565b60006020820190508181036000830152612c14816127d2565b9050919050565b60006020820190508181036000830152612c3481612838565b9050919050565b60006020820190508181036000830152612c548161289e565b9050919050565b60006020820190508181036000830152612c7481612904565b9050919050565b6000602082019050612c906000830184612979565b92915050565b6000604082019050612cab6000830185612979565b612cb86020830184612979565b9392505050565b6000604051905081810181811067ffffffffffffffff82111715612ce657612ce5612ffe565b5b8060405250919050565b600067ffffffffffffffff821115612d0b57612d0a612ffe565b5b602082029050602081019050919050565b600067ffffffffffffffff821115612d3757612d36612ffe565b5b602082029050602081019050919050565b600067ffffffffffffffff821115612d6357612d62612ffe565b5b601f19601f8301169050602081019050919050565b600067ffffffffffffffff821115612d9357612d92612ffe565b5b601f19601f8301169050602081019050919050565b6000819050602082019050919050565b600081519050919050565b600081519050919050565b600081519050919050565b6000602082019050919050565b600082825260208201905092915050565b600082825260208201905092915050565b600082825260208201905092915050565b6000612e2482612ed9565b9150612e2f83612ed9565b9250827fffffffffffffffffffffffffffffffffffffffffffffffffffffffffffffffff03821115612e6457612e63612fa0565b5b828201905092915050565b6000612e7a82612eb9565b9050919050565b60008115159050919050565b60007fffffffff0000000000000000000000000000000000000000000000000000000082169050919050565b600073ffffffffffffffffffffffffffffffffffffffff82169050919050565b6000819050919050565b82818337600083830152505050565b60005b83811015612f10578082015181840152602081019050612ef5565b83811115612f1f576000848401525b50505050565b60006002820490506001821680612f3d57607f821691505b60208210811415612f5157612f50612fcf565b5b50919050565b6000612f6282612ed9565b91507fffffffffffffffffffffffffffffffffffffffffffffffffffffffffffffffff821415612f9557612f94612fa0565b5b600182019050919050565b7f4e487b7100000000000000000000000000000000000000000000000000000000600052601160045260246000fd5b7f4e487b7100000000000000000000000000000000000000000000000000000000600052602260045260246000fd5b7f4e487b7100000000000000000000000000000000000000000000000000000000600052604160045260246000fd5b6000601f19601f8301169050919050565b60008160e01c9050919050565b600060443d101561305b576130fe565b60046000803e61306c60005161303e565b6308c379a0811461307d57506130fe565b60405160043d036004823e80513d602482011167ffffffffffffffff821117156130a9575050506130fe565b808201805167ffffffffffffffff8111156130c85750505050506130fe565b8060208301013d85018111156130e3575050505050506130fe565b6130ec8261302d565b60208401016040528296505050505050505b90565b61310a81612e6f565b811461311557600080fd5b50565b61312181612e81565b811461312c57600080fd5b50565b61313881612e8d565b811461314357600080fd5b50565b61314f81612ed9565b811461315a57600080fd5b5056fea2646970667358221220c9aff21da92b33ee0e1c5c7eed7152d769b161667a17855f835e083bbbbad20f64736f6c63430008000033",
  "immutableReferences": {},
  "source": "// SPDX-License-Identifier: MIT\n// Compatible with OpenZeppelin Contracts ^5.0.0\npragma solidity ^0.8.0;\n\nimport {ERC1155} from \"@openzeppelin/contracts/token/ERC1155/ERC1155.sol\";\nimport {Ownable} from \"@openzeppelin/contracts/access/Ownable.sol\";\n\ncontract Token is ERC1155, Ownable {\n    uint256 public constant TOKEN_COIN = 0; //  ID0\n    uint256 public constant LAND = 1; //  ID1\n\n    constructor() ERC1155(\"\"){\n    }\n\n    function setURI(string memory newuri) public onlyOwner {\n        _setURI(newuri);\n    }\n\n    function mint(address account, uint256 id, uint256 amount, bytes memory data)\n    public\n    onlyOwner\n    {\n//        require(id == TOKEN_COIN || id == LAND, \"Invalid token ID\"); // \n        _mint(account, id, amount, \"\");\n    }\n\n    function mintBatch(address to, uint256[] memory ids, uint256[] memory amounts, bytes memory data)\n    public\n    onlyOwner\n    {\n        _mintBatch(to, ids, amounts, data);\n    }\n}",
  "sourcePath": "/Users/keyuhan/Desktop/monopoly/contracts/Token.sol",
  "compiler": {
    "name": "solc",
    "version": "0.8.0+commit.c7dfd78e.Emscripten.clang"
  },
  "schemaVersion": "3.4.16",
  "updatedAt": "2024-11-30T19:11:44.014Z",
  "networkType": "ethereum",
  "devdoc": {
    "kind": "dev",
    "methods": {
      "balanceOf(address,uint256)": {
        "details": "See {IERC1155-balanceOf}. Requirements: - `account` cannot be the zero address."
      },
      "balanceOfBatch(address[],uint256[])": {
        "details": "See {IERC1155-balanceOfBatch}. Requirements: - `accounts` and `ids` must have the same length."
      },
      "isApprovedForAll(address,address)": {
        "details": "See {IERC1155-isApprovedForAll}."
      },
      "owner()": {
        "details": "Returns the address of the current owner."
      },
      "renounceOwnership()": {
        "details": "Leaves the contract without owner. It will not be possible to call `onlyOwner` functions. Can only be called by the current owner. NOTE: Renouncing ownership will leave the contract without an owner, thereby disabling any functionality that is only available to the owner."
      },
      "safeBatchTransferFrom(address,address,uint256[],uint256[],bytes)": {
        "details": "See {IERC1155-safeBatchTransferFrom}."
      },
      "safeTransferFrom(address,address,uint256,uint256,bytes)": {
        "details": "See {IERC1155-safeTransferFrom}."
      },
      "setApprovalForAll(address,bool)": {
        "details": "See {IERC1155-setApprovalForAll}."
      },
      "supportsInterface(bytes4)": {
        "details": "See {IERC165-supportsInterface}."
      },
      "transferOwnership(address)": {
        "details": "Transfers ownership of the contract to a new account (`newOwner`). Can only be called by the current owner."
      },
      "uri(uint256)": {
        "details": "See {IERC1155MetadataURI-uri}. This implementation returns the same URI for *all* token types. It relies on the token type ID substitution mechanism https://eips.ethereum.org/EIPS/eip-1155#metadata[defined in the EIP]. Clients calling this function must replace the `\\{id\\}` substring with the actual token type ID."
      }
    },
    "version": 1
  },
  "userdoc": {
    "kind": "user",
    "methods": {},
    "version": 1
  }
}